:020000040800F2
:1000000030040020E9240008612500086325000869
:1000100000000000000000000000000000000000E0
:10002000000000000000000000000000672500083C
:100030000000000000000000692500086B25000892
:10004000270D000800000000F31A0008F925000839
:100050006F2600087B2600089D2600089F260008C2
:10006000000000006D250008A1260008A326000856
:10007000A5260008A7260008A92600080000000001
:10008000AB2600080000000000000000AD260008BC
:10009000AF260008191300086B130008B1260008EA
:1000A000B3260008B5260008B7260008B9260008C0
:1000B000BB26000880B56A4988420AD10121802008
:1000C000000100F05DFD00218020000100F058FDDE
:1000D00067E08021C905884208D10121012000F094
:1000E00063FD0021012000F05FFD5AE05D49884278
:1000F00008D10121022000F057FD0021022000F06C
:1001000053FD4EE05849884208D10121102000F0EB
:100110004BFD0021102000F047FD42E0534988428A
:1001200008D10121202000F03FFD0021202000F017
:100130003BFD36E04E4988420AD101218020400033
:1001400000F032FD00218020400000F02DFD28E06D
:10015000484988420AD101218020400200F010FD68
:1001600000218020400200F00BFD1AE07049884217
:100170000AD101218020800200F002FD00218020B0
:10018000800200F0FDFC0CE09249884209D1012177
:100190008020C00200F0F4FC00218020C00200F0AA
:1001A000EFFC01BD00B5002202882D4B984206D01D
:1001B0008023DB05984202D02A4B984205D11300D8
:1001C0005C4A1A4013004A881A43274B984205D0CC
:1001D0001300594A1A4013000A891A4302804A68D8
:1001E000C2620A8802851E4A904208D0214A904283
:1001F00005D04F4A904202D0764A904201D1897A86
:1002000001860121818200BD0021C9434160002196
:10021000018000210181002141800021817270470D
:1002200041627047C162704700B5C9B2002904D06D
:10023000018880220A43028003E00188804A0A4044
:10024000028000BD00B5C9B2002904D00188012296
:100250000A43028003E001887B4A0A40028000BD15
:10026000002C014000040040001000400014004039
:10027000002000400040014000B5C9B2002907D06D
:100280004421415A802212020A434430028005E090
:100290004421415A4904490C4430018000BD30B525
:1002A000002300240022028C674B13400384048C3B
:1002B0008288038B1D001F4B2B401D00634B2B407E
:1002C0001D000B882B4325005B4C2C4025008C899E
:1002D0002C4325004C882C43664DA84208D0664D1F
:1002E000A84205D0124DA84202D03A4DA84217D1DB
:1002F0002500544C2C402500CC892C4325004F4C24
:100300002C4025008C882C4315005D4A2A4015009E
:100310006F4A2A4015000A8A2A4315004A8A2A434E
:100320008280038389684163048430BD000000003B
:10033000004401408FFF0000FFFC000030B50024A6
:1003400000220023028C4F4B13400384028C8388CD
:10035000048B2500514C2C402500564C2C40250088
:100360000C8824022C431500534A2A4015008A8920
:1003700012012A4315004A8812012A433D4DA84222
:1003800002D03D4DA8421ED11D00524B2B401D00F6
:100390000B8A9B002B43374DA84214D11500284AE5
:1003A0002A401500CA8912012A4315004A4A2A40E8
:1003B00015008A8812012A431D00484B2B401D005E
:1003C0004B8A9B002B43838004838968816302846A
:1003D00030BD00000048014030B500240022002359
:1003E000028C404B13400384028C8388848B25004D
:1003F0002A4C2C4025002F4C2C4025000C88240230
:100400002C431500384A2A4015008A8912032A43D2
:1004100015004A8812032A43164DA84206D11D0032
:10042000324B2B401D000B8A9B012B43838084831E
:1004300089680164028430BDFDFF0000FBFF0000FD
:100440007FFF0000F7FF0000FEFF0000FCFF000040
:1004500000210180002141800021818000218160F4
:10046000002181810021C18100210182002141827E
:1004700070470000002C014000400140416370477C
:10048000FFFE0000EFFF00000022028B1300184A5D
:100490001A4011430A00028370470000FF8F0000DA
:1004A0000022028B13000E4A1A4013000A021A435C
:1004B00002837047FFFC0000DFFF00000022828BF8
:1004C0001300074A1A4013000A021A438283704736
:1004D000FFFD0000FFFB0000BFFF0000FFF7000072
:1004E000FFF70000FFEF0000FFDF0000FFBF00008C
:1004F000F7FF000038B505000C00208800280AD15D
:100500002389A2886188280000F081F8E18828000A
:1005100000F035F825E0208804280AD12389A28834
:100520006188280000F08EF8E188280000F02FF89C
:1005300017E0208808280AD12389A288618828002A
:1005400000F09FF8E188280000F02AF809E02389EC
:10055000A2886188280000F0B7F8E188280000F040
:1005600027F831BD002101800021418001218180D7
:100570000021C180002101817047406B7047028BD0
:100580004F4B13400383028B114301837047028B4F
:100590004C4B13400383028B0902114301837047C4
:1005A000828B474B13408383828B11438183704737
:1005B000828B444B13408383828B090211438183D6
:1005C0007047000000B5D2B2002A03D082891143DF
:1005D000818102E082898A43828100BD00B50200E8
:1005E000002000200023108A0840928911400B004F
:1005F00080B2002804D09BB2002B01D0012000E083
:100600000020C0B200BD89B2CA430282704770B4F4
:1006100000240025048C3C4D25400584048B058C6A
:1006200026003A4C344026001C01144334432A006F
:10063000374D15402A0001250D43154304830584D9
:1006400070BC704770B4002600240025048C314D26
:1006500025400584068B048C0D0131002E4E0E4082
:1006600031001E030E43310016020E4321002B4CB5
:100670000C40210010242C430C430683048470BCDE
:10068000704770B4002600240025048C244D2540BA
:100690000584868B048C0D0231001C4E0E40310007
:1006A0001E0116430E4321001E4C0C4021008024E5
:1006B00064002C430C438683048470BC70470000A4
:1006C000F3FF0000FFF3000070B4002600240025B3
:1006D000048C154D25400584868B048C0D03310058
:1006E0000D4E0E40310016020E4331001E030E4324
:1006F00021000E4C0C402100802464012C430C434B
:100700008683048470BC7047FEFF00000CFF00006D
:10071000F5FF0000EFFF0000FF0C00005FFF00008E
:10072000FFFE0000FFF50000FFEF0000FF5F00008C
:100730004848006801210143464801604E4800686E
:10074000454901404C480160424800684349014026
:10075000404801603F480068484901403D48016009
:1007600045480068464901404348016045480068E3
:100770000F218843434908604348006843490140CA
:10078000414801604F480068012188434D49086095
:1007900000204D490860704700214C4A11704B49B8
:1007A0000870704780B500200090002000201120C4
:1007B00000F012FA0099491C00910099A022D20180
:1007C000914202D0C0B20028F1D0112000F004FA0A
:1007D000002801D0012000E00020C0B202BD4D4A37
:1007E00012684D4B13404B4A13604A4A126801434A
:1007F000114348480160704700B5C0B2002807D0D7
:10080000144800688021490401431248016005E052
:1008100010480068414901400E48016000BD0021B8
:100820003C490968032291430843010039480160AB
:100830007047384801680C2008407047002135494E
:100840000968F02291430843010032480160704773
:1008500000000000001002400CB8FF08FFFFF6FE89
:1008600000212C4909680A002D4911400843010064
:10087000284801607047000004100240FFFFFBFFA2
:10088000FFFFC0FF2C10024030100240ACFEF0FF12
:1008900020490968234A0A401E490A601D4909681F
:1008A00082B20A431B490A60A04909681E4A0A40ED
:1008B0009E490A609D490968000C08439B490860ED
:1008C000704700003410024008100240021002403D
:1008D00000B50021010F012906D1944909680322BE
:1008E0009143924A11600EE0022906D18F490968AE
:1008F0008F4A0A408D490A6005E08C4909688D4A93
:100900000A408A490A60894909680843874908609A
:1009100000BD000004100240FF7FC2FFFFFFFFFE8A
:10092000FFF8FFFFFFBFFFFFFFFEFFFF30B5040032
:100930000020002500200021002000258E480168AD
:100940000C200840002806D0042807D0082808D02A
:100950000C2823D025E08948206024E087482060C7
:1009600021E085480068F025AD0305408248016814
:10097000C02040020840AD0CAD1C002802D18848C0
:10098000454309E0874800680107090F491C7B4877
:1009900000F071F968430500256004E08B48206091
:1009A00001E07648206074480168F02008400009A2
:1009B0008549085C2168C14061606F480168E0209A
:1009C000C0000840000A8049085C6168C140A1601D
:1009D00056480068C00502D47D48E0600AE06648D9
:1009E0000068400403D4A0684008E06002E0A0680A
:1009F0008008E0604D480068400602D475482061D8
:100A000002E080200002206148480068C00602D44D
:100A10005A48606101E020686061444800688007CE
:100A2000800F002802D1A068A0611AE03F4800684A
:100A30008007800F012802D12068A06111E03B48A7
:100A400000688007800F022803D180200002A06187
:100A500007E0364800688007800F032801D1474827
:100A6000A06132480068C02189020140002902D1FA
:100A7000A068E06123E02D480068C02189020140A0
:100A800080204002814202D12068E06117E02748BF
:100A90000068C0218902014080208002814203D188
:100AA00080200002E0610AE020480068C02189023D
:100AB0000140C0208002814201D13048E0611B48E2
:100AC0000068C02109030140002902D1A06820620A
:100AD00023E016480068C021090301408020C002BD
:100AE000814202D12068206217E010480068C021CE
:100AF0000903014080200003814203D180200002CD
:100B000020620AE009480068C02109030140C020B2
:100B10000003814201D119482062044800680006A0
:100B200002D42A48606200E0656230BD30100240A5
:100B3000FFFFFCFFFFFFF3FF00B5C9B2002905D09E
:100B40003949096808433849086004E036490968AA
:100B500081433548016000BD00B5C9B2002905D008
:100B60003249096808433149086004E02F4909689F
:100B700081432E48016000BD0410024000127A003B
:100B800000B5C9B2002905D0294909680843284998
:100B9000086004E02649096881432548016000BDDA
:100BA00000093D002C10024000B5C9B2002905D053
:100BB0002049096808431F49086004E01D49096885
:100BC00081431C48016000BD08000020006CDC026D
:100BD000809FD5001280000000B500210022002176
:100BE0000100C9B24909C9B2002902D112490A68F3
:100BF0000BE0012902D10B490A6806E0022902D163
:100C00000E490A6801E00E490A68C0B2C106C90E61
:100C1000CA40D00701D5012100E000210800C0B280
:100C200000BD0000201002401410024018100240C5
:100C30000C1002401010024000100240241002402C
:100C400034100240F446002804D4494200F013F85E
:100C5000404260474042002905D45FD000F00BF8C5
:100C6000404249426047494200F005F84942604726
:100C700003460B43E6D40022030A8B420BD203093E
:100C80008B4219D243088B422ED2411A00D2014620
:100C9000524110467047FF2209023FD012068B4294
:100CA00005D3121209028B4201D312120902030961
:100CB0008B4219D300E0090AC3098B4201D3CB014F
:100CC000C01A524183098B4201D38B01C01A524191
:100CD00043098B4201D34B01C01A524103098B4295
:100CE00001D30B01C01A5241C3088B4201D3CB0080
:100CF000C01A524183088B4201D38B00C01A524163
:100D000043088B4201D34B00C01A5241884200D3A2
:100D1000401A5241CFD201461046704708B500F044
:100D200001F808BD7047FEE70121C006C00E8140F2
:100D3000C84801607047F0B540B2002821D5C64BC5
:100D400040B20207120F083A920804246243C24CD0
:100D500040B205072D0F083DAD08042675436459C0
:100D6000FF258607B60F08277E43B540AC438901AF
:100D7000C9B28007800F08256843814021439950FC
:100D80001AE0DA4A40B2830804246343D258FF23AE
:100D90008407A40F08256C43A3409A438901C9B274
:100DA00083079B0F0824634399401143CF4A40B205
:100DB0008008042358431150F0BD80B50121012063
:100DC000FFF7CAFE00F04CF8012000F0E2F9FA202B
:100DD000800000F067FA00F0EEF900F09AF800F0F9
:100DE000FEF800F03BF900F02DFA00F07CFB00F07B
:100DF000F3FB01BD00B58BB0FFF79AFC0120FFF7B4
:100E0000CBFCFFF7CFFCC0B2012822D1012000F0BB
:100E1000CBFC012000F0BEFC0020FFF70FFD0020FE
:100E2000FFF71EFD8021490380204002FFF7D7FC19
:100E30000120FFF7E1FC1920FFF7CEFE0028FAD0D1
:100E40000220FFF7ECFCFFF7F4FC0828FBD100F0D0
:100E5000F6FC01A8FFF76AFD029800900BB000BDF8
:100E600000B583B00121C020C002FFF765FE6846CF
:100E700000F0FEFD0220009000206946487101202C
:100E80006946087169469020C00500F0A1FD012067
:100E900000F024F8022209219020C00500F0FBFD9B
:100EA0000120009003206946087169469020C00522
:100EB00000F08EFD182000900120694608716946F7
:100EC0009020C00500F084FD0220009001206946BA
:100ED00008716946D84800F07BFD07BD00B583B0B6
:100EE00080218900009100216A46517100216A46E3
:100EF0009171C0B2002803D102206946087102E056
:100F000001206946087169469020C00500F060FD27
:100F100007BD00B589B0012180200001FFF71CFE4C
:100F2000DE48FFF7C7F86846FFF792FA05A8FFF713
:100F30006BF9002069468882C0480068C049FFF705
:100F40009AFE401E0690002005A90881002005A9F0
:100F5000488005A9D148FFF725F960206946088037
:100F60000120694648800A20029002206946888153
:100F70006946CA48FFF7E2F9602069460880012007
:100F800069464880AD480068AD49FFF774FE0B38EC
:100F900002906946C148FFF71FFA0821BF48FFF7D2
:100FA0007FFA0821BD48FFF789FA0121BB48FFF706
:100FB0003BF90121B948FFF75FF909B000BD80B5E1
:100FC000B6480088B6490140B44801800021B348C2
:100FD000FFF726F90021BE4800F039FE01BD00B53B
:100FE00087B0012180208000FFF7B6FDB948FFF7E8
:100FF0004FFC684600F0BBFE0020009000206946D0
:101000000871402003908020C000029000200490CE
:10101000002005906946B04800F092FE00220121B0
:10102000AD4800F0BFFE0021AB4800F0DAFE012120
:10103000A94800F0C8FE0121A74800F0A5FE012143
:10104000A54800F0D6FE0028F9D0A34800F0B6FE6F
:1010500007B000BD00E100E01CED00E000B58BB082
:1010600001210120FFF768FD994800F043FD9B48EE
:1010700000909B4801900020029080200390002067
:101080000490802005908020400006908020C000C1
:10109000079000200890C0208001099000200A904D
:1010A00069468B4800F0B3FD0121894800F0CFFD6F
:1010B00069468C4800F0ABFD01220221844800F013
:1010C000EAFD01210920FFF736FE0920FFF72CFE7B
:1010D0000BB000BD10B5040000217D4800F0B7FD45
:1010E0008148046080208149086010BD00E400E070
:1010F00010B504000120FFF7F1FE02219020C00589
:1011000000F0C4FC00F02EF8802189009020C0057A
:1011100000F0BCFC00F026F802219020C00500F091
:10112000B8FC00F01FF8802189009020C00500F075
:10113000B0FC0020FFF7D2FE674800F03FFE002120
:101140005648FFF76DF82000FFF7C4FF0121604803
:1011500000F07DFD51480088012101434F48018086
:1011600010BD000000BF00BF00BF00BF00BF00BF38
:1011700000BF00BF70475E480088182101435C48EB
:10118000018070475A4800885A49014058480180F8
:10119000704700B5C0B2002806D057480088022129
:1011A00001435548018005E05348008853490140F8
:1011B0005148018000BD00B589B001218020800226
:1011C000FFF7BAFC01218020C001FFF7C5FC4C48A5
:1011D000FFF77EFB012202219020C00500F05BFC9E
:1011E000684600F045FC04200090032069464871E1
:1011F00002206946087169469020C00500F0E8FBAE
:10120000E120400202900020039000200490002082
:101210000590002007900820069002A9394800F0A8
:1012200001FE01228021374800F07EFE0121354871
:1012300000F05DFE09B000BD000400481800002069
:101240000053070000B58BB001210120FFF774FCAB
:10125000244800F04FFC2C4800908020800501902D
:10126000102002900A200390002004908020059016
:101270000020069000200790002008908020400168
:10128000099000200A902149214800F0EEFC6946AF
:10129000144800F0BCFC0BB000BD0000002C014065
:1012A000FEFF000010B58CB0040001A8FFF73EFB64
:1012B00002981849FFF7DFFC6043009002E00098B5
:1012C000401E009000980028F9D10CB010BD00001D
:1012D0000800024000400001002401404024014079
:1012E000E00900201C000240140002400C000240F3
:1012F00014000048E7FF000014040048FDFF000050
:101300000100001000380140283801408000001022
:10131000000002401027000080B50221A848FFF716
:101320005DF9002820D00221A648FFF76CF9A648F5
:101330000088A6490140A4480180CF480088FF21C9
:101340006831884210DA0020A1490870CA48008834
:10135000401CC9490880C8480088401CC64908800C
:1013600000F01EFE00F0ECFD01BD80B502219548A5
:10137000FFF734F9002800D1B4E002219148FFF7CB
:1013800042F9BE4800889349088000F0E7F9BB495C
:101390000880BA4800888F49098880B2884207D3FC
:1013A000B64800888B490988401AB549088008E08A
:1013B00088480088B349081AB04909884018B049DC
:1013C0000880AF480088DF21490088420ADA0120FE
:1013D000FFF7DFFEDF204000A94908800120AA496D
:1013E000087005E00020FFF7D4FE0020A649087031
:1013F000A34800881621FFF73BFCDB490880CA4858
:101400000078401CC8490870C7480078162141433D
:1014100099480180D448008800F038F901285BD150
:10142000974800880221FFF723FC954908809448DB
:1014300000881621FFF71CFCCB490880C6480088AD
:10144000BA49088000F08AF9C3490880C248008878
:10145000B649098880B288420BD3BF48008880B261
:10146000B2490988401A3221FFF702FCBF490880BF
:101470000CE0AE480088834980B2081AB649098852
:1014800040183221FFF7F4FBB8490880A6480078DD
:101490000F2806D00120B64908700120FFF779FE19
:1014A00002E00020FFF775FE00F0C9FDB0480078AB
:1014B000002801D100F0ECFD0020AD4908700020AB
:1014C0009949087000206C490880A7480088401E90
:1014D00080B200F00CF905E0A3480088401E80B2FD
:1014E00000F026F901BD00B589B001218020C002BD
:1014F000FFF732FB022001A9087180200190002033
:1015000001A94871002001A98871012001A9C871B1
:1015100001A99020C00500F05BFA05220721902068
:10152000C00500F0B8FA06A8FEF76EFE9148006804
:101530009149FFF7A0FB401E694608835148079078
:10154000002006A90881002006A9488006A91D4898
:10155000FEF728FE03A8FFF705F8002069468881FA
:10156000022003A94880012003A98880002003A944
:10157000C8800F2003A9088103A91248FEF7BAFF0B
:1015800002211048FFF73FF8012202210D48FFF722
:1015900019F81620694608700F2069464870012026
:1015A00069468870684600F0E9FD01210548FEF7AC
:1015B0003BFE01210348FEF745FE09B000BD0000D7
:1015C000004401400048014010440140FDFF00007C
:1015D000FE0D0020E80D002000B589B0012180201B
:1015E0008002FFF7B9FA6548FEF764FD01A8FEF72F
:1015F0000BFE604800686049FFF73DFB401E6946EE
:10160000888020480290002001A90881002001A9BB
:10161000488001A95948FEF7C5FD002069460882A7
:10162000002004A9488064200690022004A9888133
:1016300004A95248FEF733FE01215048FEF7F4FD9D
:1016400008214E48FEF720FF02214C48FEF7DBFF41
:10165000012202214948FEF7B5FF152069460870AE
:10166000032069464870012069468870684600F08A
:1016700085FD09B000BD0000F20D0020EA0D00203C
:10168000F00D0020FFFF0000F90D002010B5040050
:1016900000213B483B4909780222514344523948D2
:1016A0000078401C37490870364800788007800F62
:1016B0003449087032480088314949884018304917
:1016C000898840182E49C98840180421FFF7D0FAAC
:1016D000010004204443A4B2200089B2FFF7C8FAF5
:1016E00080B2052801DB012000E0002010BD10B50C
:1016F000040022480088244901402048018000213C
:101700001E48FEF78DFD200080B200F011F81F4842
:101710000088012101431D480180184800880121EB
:1017200001431648018010BDF80D0020F40D002083
:1017300010B5040002204443A4B221000F48FEF774
:1017400071FDA4B220000221FFF792FA01000B48BC
:10175000FEF794FE10BD0000F60D002080B50C4889
:10176000FEF70BFF80B202BDEC0D0020EE0D002055
:10177000FA0D00201800002050C300000044014072
:10178000E00D0020FB0D0020FEFF0000144401408E
:101790000048014000210D49096801229143084396
:1017A00001000A480160704700B5C0B2002806D0A9
:1017B00006480068102101430448016005E0034821
:1017C0000068102188430149086000BD00200240E4
:1017D00080B56E480068012101436C4801606C4887
:1017E00000686C4901406A480160684800686A49BD
:1017F00001406648016065480068684901406348E7
:1018000001606348006866490140614801606548BD
:1018100000680F2188436349086063480068634992
:1018200001406148016062480068012188436049C5
:10183000086000205F49086000F048F801BD10B55D
:101840000020002400200021514801680C2008409D
:10185000002804D0042806D0082808D026E05648DE
:101860005649086025E054485449086021E048483A
:101870000068F024A403044045480168C0204002E9
:101880000840A40CA41C002804D14D4844434B48F4
:1018900004600AE0434800680107090F491C4648F4
:1018A000FFF7E9F960434549086002E042484349CF
:1018B000086037480068434900090007000F085CCA
:1018C0003E490968C1403D48016010BDC0B50020D7
:1018D0000190002000902D480068802149020143BA
:1018E0002A48016029480068802189020840009048
:1018F0000198401C01900098002804D10198A02173
:10190000C9018842EED121480068800302D5012038
:10191000009001E0002000900098012834D11120AF
:10192000294908601A480068194908601848006881
:1019300017490860164800682449014014480160AE
:1019400013480068882149030143114801600F488A
:1019500000688021490401430C4801600B4800687D
:101960008001FBD50A4800680321884308490860C4
:1019700007480068022101430548016004480068E7
:101980000C2101400829F9D103BD000000100240DC
:10199000041002400CB8FF08FFFFF6FEFFFFFBFF3C
:1019A000FFFFC0FF2C10024030100240ACFEFFFFD2
:1019B000341002400810024000127A001800002083
:1019C00000093D001C00002000200240FF7FC0FFF6
:1019D00070B5002200230024002246E0012393403A
:1019E0000C681C409C423FD10B79012B02D00B7933
:1019F000022B19D183680324150002267543AC40DD
:101A0000A343836083684C79150002267543AC407C
:101A10001C438460838801249440A343838083888B
:101A20008C7994401C4384800368032415000226AB
:101A30007543AC40A343036003680C79150002268C
:101A40007543AC401C430460C368032415000226A0
:101A50007543AC40A343C360C368CC79150002262C
:101A60007543AC401C43C460521C102AB6D370BDF1
:101A7000054901600021017101214171002181713D
:101A80000021C17170470000FFFF000089B2816131
:101A9000704701857047F0B400230023D2B20B00D9
:101AA0005B075B0F042463439A40130089B2CA109A
:101AB00004246243821889B2CC1004256C430419B3
:101AC000246A0F250E007607760F04277E43B54063
:101AD000AC43146289B2CA10042462438218126AA9
:101AE000134389B2C9100422514340180362F0BC69
:101AF0007047FEE700B501687F4A0A400260002196
:101B0000016000214160002181600021C1607B49AA
:101B1000884206D17A4800680F2101437848016065
:101B200074E07849884206D175480068F021014385
:101B3000734801606AE07449884207D170480068C0
:101B4000F021090101436E4801605FE06F4988425E
:101B500007D16B480068F021090201436848016021
:101B600054E06B49884207D165480068F0210903B9
:101B700001436348016049E06649884207D16048F3
:101B80000068F021090401435D4801603EE06249BC
:101B9000884207D15A480068F02109050143584896
:101BA000016033E05D49884206D15D4800680F213D
:101BB00001435B48016029E05A49884206D15848F0
:101BC0000068F0210143564801601FE056498842F1
:101BD00007D153480068F0210901014350480160D2
:101BE00014E05249884207D14D480068F0210902AB
:101BF00001434B48016009E04D49884206D14848FD
:101C00000068F021090301434548016000BD30B47C
:101C1000002303681A00474B13401A008B680C6AB4
:101C20001C430B6923434C691C438B692343CC69D8
:101C30001C434D6A25438B6A2B4313430360CA68D8
:101C400042600A6882604968C16030BC704700B574
:101C5000C9B2002904D0016801220A43026003E0EE
:101C60000168254A0A40026000BD30B5324A904200
:101C7000FFD0A82282580F230C0F04256C43A340E9
:101C80009A43A823C250A822825809010909114386
:101C9000A830016030BD00B5D2B2002A03D002687E
:101CA0001143016002E002688A43026000BD00B592
:101CB000C10002D51A49086001E01149086000BD61
:101CC00000B500210021C10002D51C49096801E0CE
:101CD000194909680840002801D0012100E00021CD
:101CE0000800C0B200BD00B5C10002D50C490860B3
:101CF00001E00349086000BDFEFF0000080002404B
:101D0000040002401C000240300002404400024037
:101D1000580002406C00024080000240080402406B
:101D2000040402401C040240300402404404024007
:101D3000580402400F80FFFF0000024000040240F0
:101D400030B40023C3681A00344B13401A000B68E8
:101D50000C7964031C438B682343CC681C430D69D6
:101D600025434B692B431343C36030BC70470021AC
:101D7000016000210171002181600021C16000210A
:101D8000016100214161704700B5C9B2002904D04A
:101D9000816801220A43826003E0816802220A43CB
:101DA000826000BD10B40023846A21438162072150
:101DB0008B431A431300436110BC704781680422AF
:101DC0000A438260704700B5C9B2002904D0C168D7
:101DD00001220A43C26003E0C16801229143C1604D
:101DE00000BDC26802239A43C260C2681143C16049
:101DF000704700B5020000200020C80103D592689A
:101E00000748104000E010680140002901D001207F
:101E100000E00020C0B200BD0000000003D2FFFFC0
:101E2000FFFFFFFEF0B58BB004000D000027002679
:101E3000002120680121884320606168080036493C
:101E400001400800A9680143616021680800334926
:101E500001400B006868EA6802432969114319438D
:101E60002160A16808002E4901400800696901430A
:101E7000A1606846FEF75AFD2448844201D1069EBF
:101E80000AE02348844201D1079E05E021488442AC
:101E900001D1089E00E0029E206800040CD50220BB
:101EA00070432968FEF7E7FE070002204643300032
:101EB0002968FEF7E0FE08E030002968FEF7DBFE47
:101EC000070030002968FEF7D6FE286840088142E6
:101ED00000D37F1C2068000406D578084107490F0D
:101EE000104838400F000743A7810BB0F0BD00B584
:101EF000C9B2002904D0016801220A43026003E04C
:101F0000016801229143016000BD000000380140DA
:101F10000044004000480040FFCFFFFFF3E9FFFF0F
:101F2000FFFCFFFFF0FF000000B5D2B2002A03D093
:101F300082681143816002E082688A43826000BD4A
:101F400080B546480078002806D0022818D00DD366
:101F5000042824D01CD322E0FFF70DF94048006884
:101F6000FFF7C6F801203D49087018E0FFF70AF9AD
:101F70003C480068FFF7BCF80320384908700EE0C1
:101F800037480068FFF7B4F803203449087006E0CA
:101F9000042032490870002033490870FFE701BD72
:101FA00000B53248007801214140304801702F4887
:101FB0000078C00706D52E482A4908602D482849D0
:101FC000086005E02C48274908602C48244908602F
:101FD00000BD30B583B02A4804882A48057800201F
:101FE0001E480078042829D11F480078002825D1F0
:101FF000A4B2B4204000844203DB01201A490870D7
:102000001CE0684600F0F4F8684600886946898854
:10201000322900DA0120EDB2002D06D11A49A4B20E
:10202000022262438918088105E01849A4B20222FD
:1020300062438918088101200B49087037BD80B5BB
:10204000FEF7BDFF0020054908700E480078012109
:1020500041400C48017000F067F801BDFE0D002002
:102060000400002000000020FD0D0020FF0D0020D6
:10207000E0090020E00A0020E00B0020E00C002036
:10208000F20D0020FC0D0020300400200807002085
:1020900080B500202F490978002902D001000120D5
:1020A000084301008020000208432B4909780029D9
:1020B00011D12A492A4A11802A49294A518028499E
:1020C0008880294800882649C880B621890024488C
:1020D00000F013F810E02149244A11802149234AD5
:1020E000518022498880204800882049C880B62134
:1020F00089001E4800F001F801BD38B505000C004C
:1021000000211B48FFF7A3FD1A480560A4B21A4836
:1021100004602020FFF7CBFD8020FFF7C8FD0121E0
:102120001348FFF794FD31BD10B50B480078002827
:1021300007D1B621890000220C4C200000F006F9DE
:1021400006E0B62189000022054C200000F0FEF8D0
:1021500010BD0000F90D0020FC0D0020AABB0000FE
:1021600008070020CCDD0000EE0D00203004002028
:102170001C000240280002402000024010B500214F
:102180008178002926D017490278921004235A43F7
:102190008958FF2203789B079B0F082463439A40CA
:1021A00091430C0041788901C9B202789207920FDD
:1021B00008235A43914021430A4A03789B10042480
:1021C0006343D15001210078C006C00E814006480B
:1021D000016006E001210078C006C00E814003487E
:1021E000016010BD00E400E000E100E080E100E0FB
:1021F000F1B5C6B000250020694608800023002202
:1022000000240020694648804B4803C803AE03C63B
:10221000083E4A4800680290494800680190002042
:1022200017E0002105AEC0B202274743F1536946CB
:10223000098805AEC0B202274743F65BB14207D218
:10224000694605ADC0B202264643AD5B0D80050070
:10225000401CC0B280281CDA0199C0B20226464355
:10226000895B029EC0B202274743F65BB142D8D2D7
:102270000299C0B202264643895B019EC0B2022782
:102280004743F65B891B05AEC0B202274743F153B3
:10229000CDE7EDB2142D03DA03202A49087002E0DD
:1022A00008202849087027480078EDB2854201D2FD
:1022B000244805787F2023490978401AEDB2A842C6
:1022C00003DA7F201F490978451A1E480078281A2A
:1022D0001C49097869180EE0C0B205ADC0B20226EB
:1022E0004643AD5B45435B1905ADC0B2022646438C
:1022F000AD5B5219401CC0B2C9B28842ECD3002A6F
:1023000006D06420434318001100FEF7B4FC04001B
:1023100068464088012801D10B4824186846008887
:1023200003A9888068468481469803A9062200F0A4
:1023300035F847B0F0BD00BF94260008000000202B
:10234000040000202C000020204E00001206130A7A
:102350001A43130C1A4300BF094205D0830705D066
:102360000270401C491EF9D170470000130030B4C0
:1023700014001500103902D310393CC0FCD24907B3
:1023800000D30CC000D504C0890002D30280801C99
:10239000002900D5027030BC70470000124207D0FF
:1023A0008B0706D00B78491C0370401C521EF7D8CF
:1023B0007047830706D00B78491C0370401C521EDF
:1023C000F9D1704770B4103A03D378C9103A78C085
:1023D000FBD2530701D318C918C001D508C908C0DA
:1023E000D20704D30B880380891C801C002A01D5E6
:1023F0000B78037070BC7047F0B540B2002821D54F
:10240000344B40B20207120F083A92080424624388
:10241000304C40B205072D0F083DAD08042675432A
:102420006459FF258607B60F08277E43B540AC43A5
:102430008901C9B28007800F082568438140214384
:1024400099501AE0244A40B2830804246343D258C6
:10245000FF238407A40F08256C43A3409A438901F6
:10246000C9B283079B0F08246343994011431A4A5A
:1024700040B28008042358431150F0BD80B5411E7E
:1024800080225204914201D301200EE0401E1349E4
:10249000086003210020C043FFF7AEFF0020104971
:1024A000086007200F490860002002BD00B58BB00E
:1024B000FEF7A0FC6846FEF739FA0198FA21890078
:1024C000FEF7D9FBFFF7DAFFFEF777FCFFF781FD98
:1024D000FCE700001CED00E000E400E014E000E098
:1024E00018E000E010E000E0094880F308880420CC
:1024F0000168090E1F22914205D1064801210160A1
:102500000548002101600548804705480047000054
:10251000300400201810024000000140D1170008CC
:102520008926000870B40121002313E00468001D0F
:102530000C4202D04D466D1E64192360241D121FEB
:10254000042AFAD22500960701D52380AD1C0A4043
:1025500000D02B700268001D002AE7D170BC7047C4
:10256000704700B5FEE770477047704780B502209E
:10257000FFF7A6FB002803D0FEF721FDFFF7E0FCE4
:102580000820FFF79DFB002802D00820FFF7ABFBD7
:102590000120FFF7A8FB01BD30B401210268001D36
:1025A000002A0FD00368C318446808300C4202D0D8
:1025B0004D466D1E64191D6825601B1D241D121FCC
:1025C000ECD0F8E730BC7047E0090020E00A0020BA
:1025D00000000000010203040102030406070809C9
:1025E000006CDC0200000000000000000102030497
:1025F0000607080908000000FEE7000010B50749BB
:1026000079441831064C7C44163404E0081D0A68ED
:10261000891888470100A142F8D110BD08000000C8
:102620002800000001FFFFFFD00900003004002057
:102630000000000065FFFFFF300000008CFFFFFF7F
:10264000000000200000000000F00BF8002801D07E
:10265000FFF7D4FF0020C046C046FFF727FF00F079
:1026600002F80120704780B500F002F801BDFEE7D6
:102670000746384600F002F8FBE7FEE72021090391
:1026800026311820ABBEF9E7C046C046C046C0465A
:10269000FFF7DAFF0000000000000000FEE7FEE7A1
:1026A000FEE7FEE7FEE7FEE7FEE7FEE7FEE7FEE702
:0C26B000FEE7FEE7FEE7FEE7FEE7FEE7C0
:040000050800268940
:00000001FF
