:020000040800F2
:1000000038080020ED1A0008A11B0008A31B0008F7
:1000100000000000000000000000000000000000E0
:10002000000000000000000000000000A51B000808
:100030000000000000000000A71B0008A91B00082A
:10004000BF09000800000000B3130008F7160008FD
:10005000DB1B0008431C00085B1C0008671C000831
:1000600000000000AB1B0008811C0008831C000876
:10007000851C0008871C0008891C0008000000007F
:100080008B1C000800000000000000008D1C000810
:100090008F1C0008590E0008A10E0008911C0008D2
:1000A000931C0008951C0008971C0008991C000868
:1000B0009B1C000810B55249884201D1CC0C46E087
:1000C0008021C905884206D10121012000F0C6FB2C
:1000D0000021012027E06E49884206D1012102203B
:1000E00000F0BCFB002102201DE06A49884206D1D5
:1000F0000121102000F0B2FB0021102013E066491E
:10010000884206D10121202000F0A8FB00212020F8
:1001100009E06249884209D18C0D0121200000F0DC
:100120009DFB0021200000F099FB10BD5C49884236
:1001300002D1802464020AE05A49884202D1802414
:10014000A40204E08849884209D18024E402012104
:10015000200000F075FB0021200000F071FB10BDB5
:1001600010B40388264A904206D08024E405A042B9
:1001700002D0474CA04203D1674C1C404B8823431C
:10018000444CA04203D0654C1C400B8923430380A0
:100190004B68C3620B880385904208D0404A904266
:1001A00005D0404A904202D06F4A904201D1897AEC
:1001B00001860121818210BC70470021C943416042
:1001C0000021018001814180817270474162704746
:1001D000C16270470029018802D080220A4301E0F1
:1001E000744A0A40028070470029018802D0012227
:1001F0000A4301E0684A0A4002807047000000009C
:10020000002C0140002907D04421415A80221202CB
:100210000A434430028070474421415A4904490C42
:1002200044300180704770B4028C5B4B13400384F0
:10023000048C8288038B5E4D1D400B882B43554DEB
:1002400025408E892E434C8834435B4DA84208D00C
:10025000134DA84205D0134DA84202D0424DA842EA
:100260000DD15A4D2540CC892C43504D25408C88CA
:100270002C432A4D15400E8A2E434A8A32438280EF
:10028000038389684163048470BC704700000000E8
:100290000004004000100040001400400020004016
:1002A000004001400044014070B4028C494B1340AF
:1002B0000384048C8288038B474D1D400B881B02EE
:1002C0002B43464D25408C894E88264334012C43D0
:1002D000394DA84202D0424EB04215D1414E16408F
:1002E0000A8A92003243A8420ED1324D2540CC8971
:1002F00024012C433C4D25408C8824012C433B4D4C
:1003000015404A8A92002A43828003838968816368
:10031000048470BC704700008FFF0000FFFC0000E9
:1003200070B4028C324B13400384038C8288848B1C
:10033000294D25400C8824022C432E4D1D408B89CD
:100340004E881E4333032B431B4DA84204D12A4D34
:1003500015400A8A92012A43828084838968016455
:10036000038470BC704700000048014000210180F8
:100370004180818081608181C18101824182704799
:1003800041637047028B124B13401943018370473E
:1003900000000000FDFF0000FEFF0000028B174B75
:1003A000134009021943018370470000FBFF00005E
:1003B0008CFF00007FFF0000002C0140828B0F4B60
:1003C000134009021943818370470000F7FF0000C2
:1003D000F7FF0000EFFF0000FF8C0000DFFF0000D0
:1003E00000400140FFFB0000BFFF0000FFF70000DE
:1003F000FFEF0000FFDF0000FFBF0000FFF700007D
:10040000F0B44B888C880A890D88002D18D1058C92
:100410003E4E2E400684068B058C3D4F37403C43B4
:100420001201224302833B4A2A40134301221A430A
:100430000284C988028B454B13400383028B1CE066
:10044000042D1DD1058C404E2E400684078B058C53
:10045000404E3E40120332432402144304833C4A7C
:100460002A401B01134310221A430284C988028BBD
:10047000394B13400383028B09021143018339E096
:10048000082D058C19D1354E2E400684868B058C9F
:100490001F4F37403C43120122438283304A2A4097
:1004A0001B021343802252001A430284C988828BA4
:1004B000264B13408383828B1AE02A4E2E400684FB
:1004C000878B058C234E3E40240234431203224383
:1004D0008283254A2A401B031343802252011A4378
:1004E0000284C988828B1C4B13408383828B090250
:1004F00011438183F0BC70470021018041800122BB
:100500008280C18001817047406B7047FEFF000010
:100510000CFF0000F5FF0000002A828902D0114381
:10052000818170478A438281704702000020138ACC
:1005300092890A400B4202D0002A00D00120704765
:10054000CA43028270470000EFFF0000F3FF000083
:100550005FFF0000FF0C0000FFF30000FFFE000043
:10056000FFF50000FFEF0000FF5F00004C4801684E
:1005700001220A43026041684A4A0A404260016817
:10058000494A0A4002600168484A0A4002604168DC
:10059000474A0A404260C16A0F229143C162016B1F
:1005A000444A0A400263416B0122914341630021A6
:1005B00081607047404900220A700870704710B48B
:1005C00081B000200090A021C901354A1368009C29
:1005D000641C0094009C8C4201D09B03F6D51168EA
:1005E000890300D5012001B010BC704710B4334A14
:1005F0001368874C1C401460136801431943116051
:1006000010BC704726490028086803D08022520495
:10061000024301E07F4A02400A60704727490A68A6
:1006200003239A43104308607047244801680C2054
:100630000840704721490A68F0239A431043086034
:1006400070471E490A68834B13401843086070477F
:100650001A490A68804B13400B600A6883B213433F
:100660000B60CA6A824B1340CB62CA6A000C10430B
:10067000C8627047020F7F49012A04D10A68032328
:100680009A430A6007E0022A0A6801D17A4B00E027
:10069000854B13400B600A681043086070470000E8
:1006A000001002400CB8FF08FFFFF6FEFFFFFBFF43
:1006B000FFFFC0FFACFEF0FF02100240041002403A
:1006C00070B505000020794E31680C220A40082AD6
:1006D00002D00C2A17D018E0306832680F21840C41
:1006E0000C40A41CC0204002104003D120007049DF
:1006F000484306E0B26A6F481140491C00F007F910
:100700006043010002E06C4900E06A4929603468F6
:100710006A4A0F212B6824092140515CCB406B6051
:1007200031684905490F515CCB40AB60F16AC9059E
:1007300001D4634905E03168490401D4590800E057
:100740009908E960F16A490601D45E4901E0802117
:1007500009022961F16AC90601D4564900E02968F5
:1007600069610321F26A0A4001D1A96811E0F26AC5
:100770000A40012A01D129680BE0F26A0A40022AE4
:1007800002D18021090204E0F26A1140032901D15B
:100790004849A961C0218902F26A0A4001D1A968C9
:1007A00013E0F26A0A4080235B029A4201D1296871
:1007B0000BE0F26A0A405B009A4201D1990804E01A
:1007C000F26A0A408A4201D13A49E961C02109032B
:1007D000F26A0A4001D1A96813E0F26A0A40802354
:1007E000DB029A4201D129680BE0F26A0A405B0001
:1007F0009A4201D1190904E0F26A0A408A4201D101
:100800002C492962F16A090600D42B48686270BD40
:10081000FF7FC2FFFFFFFFFE2B4A0029116802D0B5
:10082000084310607047814311607047274A0029D0
:10083000116802D00843106070478143116070470F
:10084000234A0029116802D0084310607047814391
:1008500011607047FFF8FFFFFFBFFFFF1D4A00292F
:10086000116802D0084310607047814311607047DF
:10087000FFFEFFFF30100240FFFFFCFF4109164A58
:10088000002901D1116808E0012901D1116A04E0B1
:10089000022901D1516A00E0516BC006C00EC1406F
:1008A000C807C00F70470000FFFFF3FF04100240AD
:1008B00000093D0000127A00006CDC020C040020EC
:1008C000809FD500128000001410024018100240D2
:1008D0000C1002401010024000100240F4460028A4
:1008E00004D4494200F013F84042604740420029D6
:1008F00005D45FD000F00BF84042494260474942BE
:1009000000F005F84942604703460B43E6D4002255
:10091000030A8B420BD203098B4219D243088B4244
:100920002ED2411A00D20146524110467047FF2292
:1009300009023FD012068B4205D3121209028B42E4
:1009400001D31212090203098B4219D300E0090AEC
:10095000C3098B4201D3CB01C01A524183098B4298
:1009600001D38B01C01A524143098B4201D34B0181
:10097000C01A524103098B4201D30B01C01A5241E4
:10098000C3088B4201D3CB00C01A524183088B426B
:1009900001D38B00C01A524143088B4201D34B0054
:1009A000C01A5241884200D3401A5241CFD2014668
:1009B0001046704708B500F001F808BD7047FEE723
:1009C00000B581B001210120FFF730FF00F012F8DF
:1009D00000F043F800F0B2F900F07DF800F0CCF838
:1009E00000F004F900F0E8F900F01BFB00F072FBE6
:1009F00001B000BD00B58BB0FFF7B8FD0120FFF7D7
:100A0000D9FDFFF7DCFD012820D100F0C0FB01205B
:100A100000F0B6FB0020FFF70DFE0020FFF711FEEF
:100A2000802149030809FFF7E1FD0120FFF7EAFDF6
:100A30001920FFF723FF0028FAD00220FFF7EEFD70
:100A4000FFF7F3FD0828FBD100F01AFC01A8FFF71F
:100A500037FE029800900BB000BDF0B585B00121C3
:100A6000C020C002FFF7D8FE684600F082FC0227D3
:100A7000009700256E4675710124347169469020F7
:100A8000C00500F03DFC6002029002A8457185712E
:100A9000047102A99020C00500F032FC0222092155
:100AA000C80600F075FC0094032030716946902060
:100AB000C00500F025FC1820009034716946902094
:100AC000C00500F01DFC009734716946B94800F07C
:100AD00017FC05B0F0BDF0B589B00121C802FFF7E1
:100AE000A5FEC94C2000FFF7E5FA03A8FFF73EFC7E
:100AF0006846FFF762FB0020694608806322019286
:100B0000088148802000FFF72BFB602703AD2F8072
:100B100001266E800A2005900220A88103A92000EA
:100B2000FFF7C2FB2F806E805A20059003A920009A
:100B3000FFF7F6FB08212000FFF730FC082120001A
:100B4000FFF73CFC01212000FFF744FB01212000BE
:100B5000FFF758FB09B0F0BD00B581B0AA48018885
:100B6000AA4A0A4002800021FFF730FB0021A84872
:100B700000F09FFC01B000BD10B586B00121480215
:100B8000FFF754FEA348FFF763FD684600F0F0FC52
:100B9000002000906A4610714021039109010291E2
:100BA000049005909C4C6946200000F0CFFC002288
:100BB0000121200000F0EDFC200000F0EFFC0021FE
:100BC000200000F00EFD0121200000F0FFFC0121BB
:100BD000200000F0D5FC0121200000F00AFD0028D3
:100BE000F9D0200000F0EDFC06B010BD10B58CB0BF
:100BF00001210120FFF710FE854C200000F0DAFBF8
:100C00008648009086480190002002908021039140
:100C10000490059180310691890007910890C021C8
:100C2000890109910A906946200000F027FC012102
:100C3000200000F03EFC69467A4800F01FFC0122CB
:100C40000221200000F04FFC77480168774A0A40F3
:100C50008021C90111430160600D754908600CB025
:100C600010BDF1B582B08024A40000940025684630
:100C700045718571012707719026F6056946300098
:100C800000F03EFB0221300000F07EFB00F036F861
:100C90002100300000F078FB00F030F80221300035
:100CA00000F074FB00F02AF82100300000F06EFB29
:100CB00000946846457185710221017169463000D2
:100CC00000F01EFB544800F07CFC4F4C002120003B
:100CD000FFF77CFA4E4D0021280000F0EAFB029855
:100CE000E860802068600121280000F0E2FB208895
:100CF0000743278003B0F0BD0000000000BF00BF25
:100D000000BF00BF00BF00BF00BF00BF7047494821
:100D1000018818220A430280704746480188464AE3
:100D20000A400280704745490028088802D0022204
:100D3000024301E0424A02400A80704710B588B081
:100D400001214804FFF768FD01218803FFF76EFDCC
:100D50003C48FFF78FFC9024E4050122022120008B
:100D600000F016FB684600F004FB04200090684683
:100D700003214171022101716946200000F0C0FA8F
:100D8000E12040020290002003900490059007901B
:100D9000082006902C4C02A9200000F03BFC012208
:100DA0008021200000F09EFC0121200000F080FC4A
:100DB00008B010BD0004004810B58CB0012101201E
:100DC000FFF72AFD174C200000F0F4FA1F480090AE
:100DD000802080050190102002900A2003900020BE
:100DE000049080210591069007900890490109918F
:100DF0000A901749174800F066FB6946200000F08A
:100E00003DFB0CB010BD0000002C0140FEFF0000B7
:100E1000080002400040000100240140402401403D
:100E20000C0000201C00024008E400E0FF00FFFF6F
:100E300000E100E014000048E7FF0000140400484F
:100E4000FDFF00000100001000380140283801407B
:100E5000800000100000024010B5C04C02212000AC
:100E6000FFF763FB00281AD00221BD48FFF768FB9B
:100E7000208ABC4901402182BB48818AFF22683216
:100E800091420CDA0021B94A1170818A491C818291
:100E9000818A491C818200F053FC00F02DFC10BDBA
:100EA00070B582B0AE4D02212800FFF73EFB00284E
:100EB00000D1B4E002212800FFF742FBAA4CE089F0
:100EC000A0812800FFF720FBE081E089A18988420A
:100ED00003D3E089A189401A04E0A089A449081A33
:100EE000E189401869460880DF2676006846008858
:100EF000B04206DA0120FFF716FF6846068001209F
:100F000003E00020FFF70FFF0020607068460088B4
:100F10001621FFF7FCFC20822078401C20702078EE
:100F200016214143A182208AE1784A00A2189080CC
:100F3000491C8907890FE170A188E28889182289F4
:100F40008918628989188004000C4A10920F511880
:100F50008903090CFFF7D8FC80B2052818DB684626
:100F60000088400869460880684600881621FFF717
:100F7000CEFC2082208BE0822800FFF7C5FA208378
:100F8000208BE18A884211D3208BE18A401A12E03B
:100F9000208A401E4400714DA4B221002800FFF7B2
:100FA00017F961082800FFF7EBF938E0E08A70498B
:100FB000081A218B40183221FFF7A6FC60822078A6
:100FC0000F2804D00120A070FFF7ADFE01E000F073
:100FD000F1FBA078002801D100F002FC0020A070F5
:100FE0002070A082248A5D4D2888624901402980B2
:100FF00000212800FFF7EAF8601E4400A4B2210097
:101000002800FFF7E5F861082800FFF7B9F901208B
:10101000A98A01220A43AA8229880843288002B0AB
:1010200070BDF0B589B001218804FFF7FFFB0225F0
:1010300001A805718021019100244471847101216E
:10104000C1719026F60501A9300000F059F905227A
:101050000721300000F09CF903A8FFF7AEF8444EDA
:1010600003AF454800684549FFF751FC80193880B7
:1010700004963C817C803A4E03A93000FFF770F85B
:1010800006A8FFF739FA06A804804580012181806F
:10109000C4800F24048106A93000FFF7B1F90121B3
:1010A0003000FFF797F802213000FFF749FA0122DC
:1010B00002213000FFF730FA6846162101704470B3
:1010C0000121817000F0D6FB01213000FFF78CF880
:1010D00009B0F0BD70B58AB001214804FFF7A6FB46
:1010E0001E4C2000FEF7E6FF01A8FFF766F8204D32
:1010F00001AE214800682149FFF709FC4019308002
:10110000029500253581758001A92000FFF728F898
:1011100004A80560642106910221818104A92000B0
:10112000FFF781F801212000FFF754F80821200083
:10113000FFF728F902212000FFF702FA012202211D
:101140002000FFF7E9F9684615210170032141707D
:101150000121817000F08EFB0AB070BD0044014097
:1011600000480140FDFF0000E80D002002000020C3
:10117000FFFF0000FEFF00002C04002050C3000011
:1011800009490A6801239A431043086070470649D9
:101190000028086803D0102202430A60704710221A
:1011A00090430860704700000020024082B0484829
:1011B000016801220A4302604168464A0A404260CF
:1011C0000168454A0A4002600168444A0A400260D8
:1011D0004168434A0A404260C16A0F229143C1629A
:1011E000016B404A0A400263416B01229143416313
:1011F0000021816001910091016812040A4302609C
:10120000A021C90180229202036813400093019B30
:101210005B1C0193009B002B02D1019B8B42F3D1FD
:1012200001688903CA0F00920099012926D1112172
:101230002D4A1160416841604168416041682B4A14
:101240000A4042604168882252030A4342600168B2
:10125000802252040A4302608021890402680A4005
:10126000FCD04168032291434160416802220A4355
:1012700042600C2142680A40082AFBD102B0704744
:1012800070B51B4C20680F250C210140082914D192
:1012900020682168860C2E40B61CC0204002084001
:1012A00003D114484643300008E0A16A124829409F
:1012B000491CFFF72CFB704300E00F480F49086101
:1012C00020680A6900090540485DC2400A6170BD96
:1012D000001002400CB8FF08FFFFF6FEFFFFFBFF07
:1012E000FFFFC0FFACFEFFFF00200240FF7FC0FFFA
:1012F0000410024000093D0000127A001C04002086
:1013000070B400230022012494400D682540A542BA
:1013100029D10D79012D01D0022D11D18568032627
:101320009E40B543856085684E799E402E43866019
:101330008588A543858084888D799540254385805F
:1013400003259D40EC4305682540056005680E793E
:101350009E402E430660C5682C40C460C468CD79A9
:101360009D402543C560521C9B1C102ACBD370BCEA
:1013700070470449016000210171012242718171AD
:10138000C1717047FFFF00008161704701857047A0
:1013900010B4CB089B00C0184907C90E036A0F247C
:1013A0008C40A3430362036A8A401A43026210BC62
:1013B0007047FEE701685D4A0A4002600021016053
:1013C00041608160C1605A49884203D1594801682F
:1013D0000F2250E01431884203D156480168F022B0
:1013E00049E01431884204D152480168F0221201C8
:1013F00041E01431884204D14E480168F0221202C3
:1014000039E01431884201D14A4831E01431884230
:1014100004D148480168F02212042CE014318842BB
:1014200004D144480168F022120524E04249884270
:1014300003D1424801680F221DE01431884203D1D4
:101440003E480168F02216E01431884204D13B483E
:101450000168F02212010EE01431884204D13748AD
:101460000168F022120206E01431884205D13348A7
:101470000168F02212030A43026070470268304B91
:1014800013408A681A430B6A13430A691A434B696B
:1014900013438A691A43CB6913434A6A1A438B6A16
:1014A00013430360CA6842600A6882604968C16089
:1014B00070470029016802D001220A4301E01B4A5B
:1014C0000A400260704710B4A83002680F230C0F66
:1014D000A400A3409A43026002680901090911436C
:1014E000016010BC7047002A026802D011430160FD
:1014F00070478A4302607047C10001D50F4900E080
:101500000C490860704701000020CA0001D50D4A4F
:1015100000E00D4A1268114000D001207047C10060
:1015200001D5064900E0034908607047FEFF00004E
:101530000800024004000240080402400404024083
:101540000F80FFFF0004024000000240C2682F4BE2
:1015500013400A681A430B795B0313438A681A43E2
:10156000CB6813430A691A4349691143C160704744
:101570000021016001718160C160016141617047BA
:101580000029816801D0012200E002220A43826022
:101590007047836A194381624261704701000020ED
:1015A0008A6880231B0613438B60F02212028B682B
:1015B000521E01D0002BFAD48A68002A00D4086C8D
:1015C0007047816804220A43826070470029C1681D
:1015D00003D001220A43C260704701229143C160D7
:1015E0007047C26802239A43C260C2681143C16057
:1015F000704702000020CB0103D59368044A1A40CB
:1016000000E01268114000D00120704703D2FFFFB4
:10161000FFFFFFFEF0B58BB004000D002068012134
:101620008843206060682B490140A86808436060D7
:1016300020682949014068680843E968014328692E
:1016400008432060A0682549014068690843A060FC
:101650006846FFF735F81C48844201D1069E0AE02F
:101660001A48844201D1079E05E01948844201D1FD
:10167000089E00E0029E2D682068000400D57600D8
:1016800030002900FFF743F9070030002900FFF779
:101690003EF96808814200D37F1C2068000404D50D
:1016A0000F48384039074F0F0743A7810BB0F0BDF3
:1016B0000029016803D001220A4302607047012219
:1016C0009143016070470000003801400044004031
:1016D00000480040FFCFFFFFF3E9FFFFFFFCFFFFE3
:1016E000F0FF0000002A826802D011438160704739
:1016F0008A4382607047FEE710B5364CA078002818
:1017000005D0022811D009D3032814D010BDFFF74B
:10171000FEFAA068FFF7A5FA01200AE0FFF7FDFA3C
:101720006068FFF79EFA022003E0A068FFF799FACD
:101730000320A07010BD0420A0700020607010BDB8
:101740002448C17801224A40C270C178C90704D533
:1017500001000C318622520004E0832189004118E7
:10176000C3229200821882604160704770B582B0D7
:1017700019480488174D2E78A878042818D168785D
:10178000002815D1684600F09FF868460088694631
:101790008988322900DA0120104962008918002E58
:1017A00001D1088102E0B8229200885201206870BD
:1017B00002B070BD00B581B0FFF7CEF90548002139
:1017C0008170017801224A40027000F033F801B0C4
:1017D00000BD000000000020FC0D002038080020A3
:1017E00070B500201B490978002900D00120B624DB
:1017F000A400194E19491A4A1A4B1B4D2D78002D79
:1018000001D11A4D00E01A4D2B806A80A88008880B
:10181000E88000213000FFF74CFEF5607460202066
:10182000FFF76AFE8020FFF767FE01213000FFF717
:1018300040FE70BD00B581B0B62189000A4800782D
:10184000002801D10A4800E0084800F01FF901B063
:1018500000BD0000E90D00201C000240FA0D002030
:10186000CCDD0000AABB000000000020100B00200F
:101870003808002070B401000C781F2201238878FA
:10188000002815D00D4D20000326B0432818056808
:10189000A407E40EFF26A640B5434E78B607360EE1
:1018A000A6402E430660087802409340044802E0B8
:1018B000224093400348036070BC704700E400E09E
:1018C00000E100E080E100E0F1B5C6B000220024B4
:1018D0000192009269460A8159A003C803AB03C371
:1018E000002054490968544B1B6805AD1F880E88B9
:1018F000BE4201D2BE1B00E000262E802E88B442DC
:1019000001D234000200401C5F884E88BE4201D2E2
:10191000BE1B00E000266E806E88B44201D2340007
:101920000200401C9F888E88BE4201D2BE1B00E090
:101930000026AE80AE88B44201D234000200401CC2
:10194000DF88CE88BE4201D2BE1B00E00026EE80BA
:10195000EE88B44201D234000200401C083508333E
:1019600008318028C2DBD2B2142A01DA032000E059
:101970000820324908700878824200D202007F2194
:10198000091A914201DA7F210A1A1118C9B2151AEF
:10199000EDB28D4241DA491B05A86A0082188B0717
:1019A0009B0F0DD01688019F2800704338180190B6
:1019B0000098801900906D1C5B1E921C002BF1D1C9
:1019C00089081FD01388019E2800584337180098B3
:1019D000C3186D1C5688280070433F189B196D1C56
:1019E0009688280070433F189B196D1CD6882800E4
:1019F000704338180190981900906D1C491E0832E8
:101A00000029DFD10098002807D0019864214843BD
:101A10000099FEF77CFF6946088103A88480684628
:101A2000008969468881469803A9062200F030F8AB
:101A300047B0F0BD08000020040000203004002062
:101A40000000000000000000094205D0830705D017
:101A50000270401C491EF9D170470000130030B4D9
:101A600014001500103902D310393CC0FCD24907CC
:101A700000D30CC000D504C0890002D30280801CB2
:101A8000002900D5027030BC704700000022DBE75F
:101A9000124207D08B0706D00B78491C0370401CFC
:101AA000521EF7D87047830706D00B78491C037085
:101AB000401C521EF9D1704770B4103A03D378C954
:101AC000103A78C0FBD2530701D318C918C001D50A
:101AD00008C908C0D20704D30B880380891C801C66
:101AE000002A01D50B78037070BC7047094880F359
:101AF000088804200168090E1F22914205D106487A
:101B00000121016005480021016005488047054822
:101B10000047000038080020181002400000014073
:101B2000AD110008751C000870B40121002313E0FA
:101B30000468001D0C4202D04D466D1E64192360DE
:101B4000241D121F042AFAD22500960701D52380EE
:101B5000AD1C0A4000D02B700268001D002AE7D19E
:101B600070BC704730B501684118446862088A1833
:101B70008368E40701D54C461B190C30914200D113
:101B800030BD0C7864B2491C0D78491C1D705B1C7B
:101B9000002C02D5641CF9D1F0E7641EF4D5EDE702
:101BA0007047FEE770477047704700B581B002206C
:101BB000FFF7A9FC002803D0FEF7CEFFFFF79CFD3E
:101BC0000820FFF7A0FC002802D00820FFF7A7FCA0
:101BD0000120FFF7A4FC01B000BDFEE710B50749E6
:101BE00079441831064C7C44163404E0081D0A6818
:101BF000891888470100A142F8D110BD08000000F3
:101C00002400000025FFFFFFCC050000380800205D
:101C10000000000051FFFFFF84000000740000007E
:101C20000000002000F00BF8002801D0FFF7D6FFDD
:101C30000020C046C04600F005F800F00AF8012078
:101C40007047FEE700B581B0FEF7BAFEFFF78EFDE4
:101C5000FCE780B500F002F801BDFEE70746384614
:101C600000F002F8FBE7FEE72021090326311820E7
:101C7000ABBEF9E7C046C046C046C046FFF7D2FF3C
:101C8000FEE7FEE7FEE7FEE7FEE7FEE7FEE7FEE72C
:101C9000FEE7FEE7FEE7FEE7FEE7FEE7FC00070CD7
:101CA0000000200C01002081008100810081008162
:101CB00000810081008100F4000B01020304010295
:101CC000030406070809F8000C01020304060708CC
:061CD00009006CDC0208B3
:0400000508001C755E
:00000001FF
