:020000040800F2
:10000000001000205D040008670800086D08000863
:1000100000000000000000000000000000000000E0
:100020000000000000000000000000006B08000855
:1000300000000000000000006908000865080008D2
:10004000A904000800000000A9040008A904000891
:10005000A9040008A9040008A9040008A9040008CC
:10006000000000003D080008A9040008A9040008D9
:10007000A9040008A9040008A90400080000000061
:10008000A90400080000000000000000A904000806
:10009000A9040008DD130008A9110008A90400083C
:1000A000A9040008A9040008A9040008A90400087C
:1000B000A90400080000000000000000000000008B
:0400C0005FF808F1EC
:1000C40002B4714649084900095C49008E4402BCE7
:1000D4007047C046002243088B4274D303098B4205
:1000E4005FD3030A8B4244D3030B8B4228D3030C04
:1000F4008B420DD3FF22090212BA030C8B4202D3A6
:100104001212090265D0030B8B4219D300E0090ACD
:10011400C30B8B4201D3CB03C01A5241830B8B42D6
:1001240001D38B03C01A5241430B8B4201D34B03BF
:10013400C01A5241030B8B4201D30B03C01A524124
:10014400C30A8B4201D3CB02C01A5241830A8B42A9
:1001540001D38B02C01A5241430A8B4201D34B0292
:10016400C01A5241030A8B4201D30B02C01A5241F6
:10017400CDD2C3098B4201D3CB01C01A52418309AA
:100184008B4201D38B01C01A524143098B4201D3E4
:100194004B01C01A524103098B4201D30B01C01A0F
:1001A4005241C3088B4201D3CB00C01A5241830889
:1001B4008B4201D38B00C01A524143088B4201D3B6
:1001C4004B00C01A5241411A00D201465241104616
:1001D4007047FFE701B5002000F0F0F802BDC0460B
:1001E4000029F7D076E7704703460B437FD40022FB
:1001F40043088B4274D303098B425FD3030A8B42B7
:1002040044D3030B8B4228D3030C8B420DD3FF2220
:10021400090212BA030C8B4202D31212090265D0EE
:10022400030B8B4219D300E0090AC30B8B4201D3A1
:10023400CB03C01A5241830B8B4201D38B03C01AE8
:100244005241430B8B4201D34B03C01A5241030B5F
:100254008B4201D30B03C01A5241C30A8B4201D310
:10026400CB02C01A5241830A8B4201D38B02C01ABB
:100274005241430A8B4201D34B02C01A5241030A32
:100284008B4201D30B02C01A5241CDD2C3098B4217
:1002940001D3CB01C01A524183098B4201D38B0194
:1002A400C01A524143098B4201D34B01C01A524137
:1002B40003098B4201D30B01C01A5241C3088B427C
:1002C40001D3CB00C01A524183088B4201D38B0067
:1002D400C01A524143088B4201D34B00C01A524109
:1002E400411A00D201465241104670475DE0CA0FE0
:1002F40000D04942031000D34042534000229C46A0
:1003040003098B422DD3030A8B4212D3FC228901A9
:1003140012BA030A8B420CD3890192118B4208D37F
:10032400890192118B4204D389013AD0921100E0E1
:100334008909C3098B4201D3CB01C01A52418309F5
:100344008B4201D38B01C01A524143098B4201D322
:100354004B01C01A524103098B4201D30B01C01A4D
:100364005241C3088B4201D3CB00C01A52418308C7
:100374008B4201D38B00C01A5241D9D243088B421D
:1003840001D34B00C01A5241411A00D201466346C0
:1003940052415B10104601D34042002B00D5494224
:1003A400704763465B1000D3404201B5002000F063
:1003B40005F802BD0029F8D016E770477047C0461B
:1003C4000448054B10B5834203D0044B002B00D0E6
:1003D400984710BD300000203000002000000000CD
:1003E40006480749091A8B10C90FC91810B54910D6
:1003F40003D0044B002B00D0984710BD30000020E0
:10040400300000200000000010B5074C2378002BBA
:1004140009D1FFF7D5FF054B002B02D0044800E0BB
:1004240000BF0123237010BD300000200000000035
:1004340088140008054B10B5002B03D00449054867
:1004440000E000BFFFF7CCFF10BDC0460000000075
:1004540034000020881400080C488546002103E07D
:100464000B4B5B58435004310A480B4B42189A42D9
:10047400F6D30A4A02E0002313600432084B9A427E
:10048400F9D300F00FFE00F0F1F9FEE700100020B0
:10049400A8140008000000203000002030000020D4
:1004A400200A0020FEE70000094B0A491A680A40A6
:1004B4001A60B62220219200D8605A60064A516020
:1004C40060315160012219680A431A607047C046BE
:1004D4001C000240FEFF00000000024002680D4BB9
:1004E40010B51A400C6A8B6823430C6923434C698A
:1004F40023438C692343CC6923434C6A23438C6A8A
:10050400234313430360CB6843600B6883604B68E9
:10051400C36010BD0F80FFFF0C22F8B5554D0400D9
:100524006B681340082B05D0934253D0524B0020E4
:1005340023600CE00F23C02268686968800C1840AF
:100544005202861C11423ED14C48704320602168FF
:100554006B680A004A4E1B061B0FF35CDA406260AC
:100564006B685B055B0FF35CDA40A2602B6BDB0509
:1005740032D4444B4026E3602B6B33405E427341DC
:1005840012265B423340802636029B1923612B6B73
:10059400DB0628D50B00636103232E6B1E4224D196
:1005A400A261C0232E6B9B021E4232D1E261C023A2
:1005B4002E6B1B031E4244D122622B6B1B0600D4FC
:1005C40031486062F8BDE96A2B4819400131FFF7F0
:1005D40081FDBAE72C4BAAE76B685B0401D453088E
:1005E400C8E79308C6E7244BD5E72E6B1E40012EBF
:1005F40001D1A161D5E72E6B1E40022E03D18023C9
:100604001B02A361CDE72E6B3340032BC9D11A4BD8
:10061400F7E780272E6B7F021E40BE4201D1E161C5
:10062400C5E780272E6BBF021E40BE4203D1802344
:100634001B02E361BBE72E6B1E409E42B7D10E4BFB
:10064400F7E780262A6BF6021A40B24201D12162F2
:10065400B3E780212A6B09031A408A4203D180231D
:100664001B022362A9E72A6B1A409A42A5D1024BC6
:10067400F7E7C0460010024000127A0000093D006E
:1006840011000020809FD500006CDC02F7B5032226
:100694000023944601279F400A683A4097422CD190
:1006A40064465D00AC400A79E443561E0192012E73
:1006B40011D8866826408660866832004E79AE403E
:1006C400164386608688BE4386808F7986889F40DD
:1006D4003E43B6B28680019A0668AA40344004605C
:1006E400046822436446AC400260C268A243C2600C
:1006F400CA79C468AA402243C2600133102BC9D10D
:10070400F7BDC046C046C046C046C046C046C04607
:10071400C04670470121064B1A888A431A8000227A
:100724005A62044A044913680B4013607047C04678
:10073400002C014008000240FEFF0000802307B5A2
:100744009B00002200936B465A719A7102231B1A74
:1007540090206A466946C0051371FFF797FF07BDED
:10076400F8B5902402278026E40505000120FFF750
:10077400E5FFB600A761FFF7C4FFA661FFF7C1FF5D
:100784002785FFF7BEFF26850020FFF7D7FF042348
:100794000B4A0C4891680B43936000230A494B624F
:1007A4000A4B1A6802401A608022DD605A60186899
:1007B4007F3A104318600B881A430A80F8BDC0467C
:1007C40000240140FEFF0000002C0140080002400C
:1007D40010B5154C2378D8B2032B0FD8FFF770FC53
:1007E400020F1B1D90221823D205918A0B4393827A
:1007F4000E4B1868FFF7B4FF0123237010BD90223D
:100804001821D205938A8B439382094B1868FFF70A
:10081400A7FF0323F1E7054BF8E704230022237025
:10082400044B1A70EAE7C046540400202C00002050
:10083400280000205704002010B5084C23689B07AB
:1008440003D5FFF767FFFFF7C3FF082322681A42A7
:1008540000D063600123636010BDC0460000024005
:100864007047704770477047FEE700000122F0B5FB
:10087400ED4CEE492368A020134323606368D5B090
:100884000B4063602368EA49C0010B40236023687E
:10089400E8490B4023606368E7490B400F2163601C
:1008A400E36A8B43E362236BE4490B402363636B8A
:1008B400E349934363630023A3600B700A708021B0
:1008C400069389022368069A0B4001320692069A1F
:1008D400824201D0002BF5D0236801229B033FD52F
:1008E4001021D84B186801431960196891430A43D1
:1008F4001A60F0226368934363606368D24A1340CA
:1009040063606368D14A13406360882362685B0351
:1009140013436360802322685B04134323608023B2
:100924009B0422681A42FCD0032263680C2193437F
:100934001A0002231343636062680A40082AFBD149
:100944006368C34E0B40082B00D104E3C14B3360F2
:100954006368C14A1B061B0FD35C3268DA403260FD
:1009640014A8FFF7D9FD159B0AA800930593FFF778
:10097400D3FDFA210B988900FFF7ACFB80230138E3
:100984005B0498420DD2C021B44A09065060B448B1
:10099400036A1B021B0A0B430362002393600733A1
:1009A40013600126A36990253343A361C023022762
:1009B4006269DB02ED0513436361280014A91497EF
:1009C4001596FFF763FE3000FFF7B8FEF0226B6A5E
:1009D40004A993436B6220236A6A280013434422C8
:1009E4006B62032389180B7014A91496FFF74EFE4B
:1009F40018234422149304AB9B18280014A91E70D6
:100A0400FFF744FE4422974D04AB9B1814A9280019
:100A140014971E70FFF73AFEAB8A14A81F43AF82E7
:100A2400FFF77AFD159B904918000093FFF752FBDE
:100A3400FA239B0043430793079B002B00D09FE2BC
:100A4400802362699B02134363618023A269DB01F3
:100A5400134303229020A361236BC00593432363B4
:100A6400226B824B08A913432363036A804A814E95
:100A7400134003628023026A5B001343036204236E
:100A840008937D4B7D4D0993FFF700FE01223368E7
:100A940014A8934333607368794A134073603368CE
:100AA400784A1A40082313433360B3682B40B36079
:100AB400FFF732FD33681A9F01951B0400D57F00B0
:100AC400E12138004902FFF705FBE1210500490255
:100AD4003800FFF785FBE1220023120291425B41BB
:100AE400ED1833681B0404D567482B075B0F0540DA
:100AF4001D438022ADB2B58101258021B36809016F
:100B04001343B360336861482B433360A369C02641
:100B14000B43A361E3685E4F0B43E360E3685D4905
:100B24000340E3604A4BF6011B6818000293FFF789
:100B3400D1FA594B00901A88411E584802401A8035
:100B44000022D96210211A851A869D821A8C8A4342
:100B54001A841A8C9888198B39403143E026B243A1
:100B6400B03E32434E4E3040988019830A21996337
:100B74001A841A8C4B4900980A401A841E8C99884E
:100B8400B446C0269A8BF60117403E436746464A50
:100B94000B383A40C027BF013A43444F394099804B
:100BA40080219E8318641A841A8B384809010240F4
:100BB4000A431A839A8B02400A4380219A831A8833
:100BC4000A4380211A803A4A0902D38F0B43D38700
:100BD4008023A2699B001343A361636835491F40C6
:100BE400802367606268DB0113436360236B324ACE
:100BF400134023638023226B5B00134323632F4B37
:100C0400DA6811408822D2000A43DA609A6A022123
:100C14002A439A6200225A61DA688A43DA60DA68FF
:100C2400DA60DA682A434BE0001002400CB8FF088F
:100C3400FFFFF6FEFFFFFBFFFFFFC0FFACFEF0FF70
:100C44000210024000200240FFF8FFFFFF7FC2FFB6
:100C54002400002000127A000000002010E000E0D0
:100C640000ED00E00004004810270000010000101F
:100C7400FFF0FFFF0038014002030000FFFCFFFF0C
:100C8400FFCFFFFFF3E9FFFFF0FF0000FFF7FFFFD7
:100C9400FF8CFFFF00530700002C01408FFCFFFF77
:100CA400FFF3FFFFFFEFFFFFFFDFFFFFFFBFFFFFCC
:100CB400062C014003D2FFFFFFFEFFFF002401408A
:100CC400DA609A682A439A6000951A68009911407C
:100CD400039100990A42F8D004219A68D54E0A4338
:100CE4009A606369009A0027134363613368D24AA8
:100CF400D249134033600F2337607760B760F760E1
:100D04004A6814AD13434B60CD4B29001493CD4B6B
:100D140030006B608023EB606B61DB18AB61802378
:100D2400DB00EB61C0239B01AF602F612F626B621C
:100D3400AF62FFF7D3FB33680098290003433360A5
:100D4400C148FFF7CBFB0220C2213368890003436B
:100D5400BE4833604258BE4BB74E1A408023DB0175
:100D6400134343508023F0219B0003606369009A7E
:100D7400B5481343B44A6361136833401360176082
:100D840057609760D760AD4A802653680B43536021
:100D9400B04B0A22149380239B056B601023AB6035
:100DA40080235B016B62AC4B2F616E61AF61EF61BD
:100DB4002F62AF62EA601A688A431A601A682900CF
:100DC40032431A60FFF78AFB8023A269DB021343D4
:100DD400A36114969026A14BF605290030001593C3
:100DE400FFF754FC336A02981B011B093362A023EA
:100DF400326ADB05134333629949FFF76BF9013813
:100E040083B29C46974B01991A88974E0A401A80E0
:100E14006246DE621A85009A1F869A821A8C0099AD
:100E24008A431A84F322198B188C9143023A114392
:100E340019830C21E73A9043073A02431A841A8B28
:100E440082488A431A831A8B0A3992B21A8303227C
:100E540052421A829A890A439A81C5229200815881
:100E640082480840C0210904014378488150802108
:100E7400C9030160802019880143198019880098EA
:100E8400014319808023A1699B021943A161E16890
:100E94000B43E360E36876490B40E360754B019CC8
:100EA4001988214064461980DE6273261C85009CE3
:100EB4001F869C82198C009C0237A1431984198CCB
:100EC40098881C8BB443693EB143EE8931430426B0
:100ED400B143AE8839433143019E30402E8A6D8A36
:100EE4002E4330439880642080261C8358631984E1
:100EF40019885C3831431980198B544C8143014360
:100F04001983032149421982998939439981A15846
:100F14004F4B1940C0231B020B43A35080239B0358
:100F240023600290544B55481B78554C554A019305
:100F340003889BB200932378042BF9D11178CBB2A8
:100F44000029F5D100990800B421490088421AD338
:100F540001231370E6E70F23C02265686168AD0CB6
:100F64001D4052020235114203D1474845433560C2
:100F7400EEE4E16A454819400131FFF7ABF8F5E7C3
:100F8400079B013B57E5424A1F001568414A14A9D3
:100F940016681A00D0B254008446285B345BA04221
:100FA4003BD9001B08800888874201D207006346AA
:100FB40001320231802AEDD10299132B00D803218A
:100FC400354A11700A1C994200D21A1CD3B27F22EE
:100FD400521A934200DDD3B2CA185B1A00210800EA
:100FE400D2B2DBB214ADDCB2A24218D8002904D0CC
:100FF40064235843FFF76EF80100312F00D803999A
:10100400009B019A043389B25B00002A0FD1234A62
:10101400D15201221B4B1A7084E70020C2E75C0006
:10102400645B26005E43091980190133DBE71C4A1F
:10103400EEE7C04608000240FEFF00000000024048
:1010440040240140520000201C00024000E100E066
:10105400FF00FFFF28380140A80002400200000101
:1010640050C3000000480140FFFF0000FFFF00FFE5
:10107400FFFFFDFF00440140080A00204C0000204F
:10108400540400205704002000093D0000127A0097
:10109400280000202C00002010000020580400200C
:1010A4003007002013B50121364B37481A68A024B5
:1010B4000A431A605A68E40102405A601A683348C5
:1010C40002401A601A68324802401A605A6831486D
:1010D40002400F205A60DA6A8243DA621A6B2E48A1
:1010E40002401A635A6B80208A435A6300229A6032
:1010F4000092019280221968520280020A43010080
:101104001A601A6802400192009A01320092019A10
:10111400002A02D1009AA242F3D11A6810000840B2
:101124000A422CD001220192019A012A26D11121CE
:101134001A4A11605A681A495A605A685A605A68B9
:101144000A405A608822596852030A435A6080222E
:10115400196852040A431A608022920419681142E1
:10116400FCD003215A688A435A60022259680A4310
:101174000C215A605A680A40082AFBD113BD019019
:10118400D2E7C046001002400CB8FF08FFFFF6FE8D
:10119400FFFFFBFFFFFFC0FFACFEFFFF002002408C
:1011A400FF7FC0FF0222F8B5744F398ABB899BB216
:1011B400114260D013425ED00323714A5B423B82EA
:1011C400138870499BB20B807B6B6F4E9BB213806C
:1011D4000B88108899B283424ED81388DF225B1A99
:1011E4009BB2338031880223684D5200914246D22B
:1011F400A98A0B43AB8201233280654A16211370FE
:10120400308880B2FEF766FF624B80B21880624B72
:10121400614A1B7861490133DBB2137016231278DB
:1012240053435F4A13805B4B0A7818885D4B540024
:1012340080B2E0520324013222400A705A8819888D
:10124400800089189A88DB888918C918891080B2A7
:10125400002903D089B2FEF73DFF80B2524C042826
:1012640012D84C4B1B88013B9BB25A005B0492B2D0
:101274005B0CE2626363F8BD1388013BAEE7AA8AA4
:101284009A43AA820023B8E7338816215B08338087
:10129400308880B2FEF71EFF3E4B80B21880434B6D
:1012A40043491A88434E92B20A807A6B92B21A80EA
:1012B400098818888AB2814256D81888801A32213F
:1012C400FEF792FF344B80B230801B783A4F0F2BDD
:1012D4004FD001233B70AA8ADB181343AB82FFF77C
:1012E40019FA0021354B364A19700123157835480F
:1012F4006B401370B6229200012D00D0324800F0EA
:10130400B9F83B78002B13D1214B30491B782E4878
:101314005A1E93418022120213432D4A012D00D0FC
:1013240028480180428083803388C380FFF7BCF85B
:1013340000210122184B39701970194B1980154B73
:101344001B882088013B9BB2904320806162590036
:101354005B045B0C89B2E1626363A38A1343A382D7
:1013640023881A43228086E718881A4B801AC018EB
:10137400A5E70222AB8A9343B0E7C0460048014088
:101384004E000020500000205204002000040048B9
:10139400550400200E0A0020090A002056040020EB
:1013A4004C000020100A0020004401401A0A0020CA
:1013B4001C0A00200A0A00200C0A00205404002001
:1013C400080A00205804002030070020AABBFFFFB1
:1013D400CCDDFFFFFFFF0000022110B51A4B188A75
:1013E4009A8992B2084229D00A4227D00320174A88
:1013F400404210821A8A8A431A82B322144B520042
:10140400198891421AD80021124A11701A880131A0
:10141400013292B21A801A88013292B21A800E4BAB
:101424001A784A401A7018780C4A0D4B084206D0B4
:101434000C4911600C4A1A60FFF7CAF910BD0B4938
:1014440011600B4AF7E7C0460044014000480140E0
:101454004C00002054040020180A0020280000201A
:101464002C000020520000205202002052010020D3
:101474005203002003008218934200D17047197070
:101484000133F9E7F8B5C046F8BC08BC9E4670477E
:0C149400F8B5C046F8BC08BC9E46704786
:0414A0003904000803
:0414A4000D0400082B
:1014A800000000000000000001020304060708090C
:1014B80008000000000102030401020304060708F3
:1014C80009000000006CDC025200002052020020DB
:040000050800045D8E
:00000001FF
