:020000040800F2
:100000000010002049040008D9080008E50800088D
:1000100000000000000000000000000000000000E0
:10002000000000000000000000000000E1080008DF
:100030000000000000000000DD080008D5080008EE
:1000400095040008000000009504000895040008CD
:10005000950400089504000895040008950400081C
:1000600000000000A9080008950400089504000895
:10007000950400089504000895040008000000009D
:10008000950400080000000000000000950400082E
:10009000950400086D150008ED120008950400088D
:1000A00095040008950400089504000895040008CC
:1000B000950400080000000000000000000000009F
:0400C0005FF808F1EC
:1000C400002243088B4274D303098B425FD3030A93
:1000D4008B4244D3030B8B4228D3030C8B420DD3A6
:1000E400FF22090212BA030C8B4202D31212090234
:1000F40065D0030B8B4219D300E0090AC30B8B4272
:1001040001D3CB03C01A5241830B8B4201D38B031F
:10011400C01A5241430B8B4201D34B03C01A5241C4
:10012400030B8B4201D30B03C01A5241C30A8B4207
:1001340001D3CB02C01A5241830A8B4201D38B02F2
:10014400C01A5241430A8B4201D34B02C01A524196
:10015400030A8B4201D30B02C01A5241CDD2C30908
:100164008B4201D3CB01C01A524183098B4201D384
:100174008B01C01A524143098B4201D34B01C01A6F
:10018400524103098B4201D30B01C01A5241C308E7
:100194008B4201D3CB00C01A524183088B4201D356
:1001A4008B00C01A524143088B4201D34B00C01A42
:1001B4005241411A00D20146524110467047FFE7AE
:1001C40001B5002000F0F0F802BDC0460029F7D0C8
:1001D40076E7704703460B437FD4002243088B42E3
:1001E40074D303098B425FD3030A8B4244D3030BBA
:1001F4008B4228D3030C8B420DD3FF22090212BA7F
:10020400030C8B4202D31212090265D0030B8B42FA
:1002140019D300E0090AC30B8B4201D3CB03C01AE4
:100224005241830B8B4201D38B03C01A5241430BBF
:100234008B4201D34B03C01A5241030B8B4201D3AF
:100244000B03C01A5241C30A8B4201D3CB02C01A1A
:100254005241830A8B4201D38B02C01A5241430A92
:100264008B4201D34B02C01A5241030A8B4201D381
:100274000B02C01A5241CDD2C3098B4201D3CB0128
:10028400C01A524183098B4201D38B01C01A5241D7
:1002940043098B4201D34B01C01A524103098B42DB
:1002A40001D30B01C01A5241C3088B4201D3CB00C6
:1002B400C01A524183088B4201D38B00C01A5241A9
:1002C40043088B4201D34B00C01A5241411A00D259
:1002D40001465241104670475DE0CA0F00D04942C2
:1002E400031000D34042534000229C4603098B4232
:1002F4002DD3030A8B4212D3FC22890112BA030ABA
:100304008B420CD3890192118B4208D3890192113B
:100314008B4204D389013AD0921100E08909C309C0
:100324008B4201D3CB01C01A524183098B4201D3C2
:100334008B01C01A524143098B4201D34B01C01AAD
:10034400524103098B4201D30B01C01A5241C30825
:100354008B4201D3CB00C01A524183088B4201D394
:100364008B00C01A5241D9D243088B4201D34B00AF
:10037400C01A5241411A00D20146634652415B10F1
:10038400104601D34042002B00D5494270476346D2
:100394005B1000D3404201B5002000F005F802BD17
:1003A4000029F8D016E770477047C0460448054B4B
:1003B40010B5834203D0044B002B00D0984710BDE6
:1003C40030000020300000200000000006480749EB
:1003D400091A8B10C90FC91810B5491003D0044B62
:1003E400002B00D0984710BD3000002030000020C2
:1003F4000000000010B5074C2378002B09D1FFF74B
:10040400D5FF054B002B02D0044800E000BF0123B8
:10041400237010BD300000200000000020160008EA
:10042400054B10B5002B03D00449054800E000BF7C
:10043400FFF7CCFF10BDC0460000000034000020D0
:10044400201600080C488546002103E00B4B5B583E
:10045400435004310A480B4B42189A42F6D30A4AD5
:1004640002E0002313600432084B9A42F9D300F0EF
:10047400B3FE00F037FAFEE7001000204016000833
:10048400000000203000002030000020240A00205A
:10049400FEE70000094B0A491A680A401A60D8604E
:1004A400B6202021820007485A60416060314160D3
:1004B4001A687F390A431A607047C0461C0002401C
:1004C400FEFF00000000024003680D4A10B51A4008
:1004D4000C6A8B6823430C6923434C6923438C695E
:1004E4002343CC6923434C6A23438C6A2343134339
:1004F4000360CA680B68496842608360C16010BDCC
:100504000F80FFFFF8B50C235E4A040051680B40CE
:10051400082B00D18CE00C2B00D185E05A482060D8
:100524000020584F7E683506290F2568574E2A004B
:10053400735CDA40626079684B05590F765CF2406F
:10054400A2603B6BDB0566D4514BE36040264D4F04
:10055400396B0E4071424E411221734280260B408A
:1005640031028C46634423613F6BFB0651D52B005B
:100574000327444963610E6B37423BD1A261C02318
:1005840040499B020F6B1F4221D1E261C0233D49C8
:100594001F030E6B3E4207D122623A4D2E6B330687
:1005A40000D43C486062F8BD80260A6BF3023A40EE
:1005B4009A424BD080250A6B2E033A40B24258D05F
:1005C400096B3940B942E8D12F4F2762E5E780270C
:1005D4000E6B7F021E40BE423AD080270E6BBF02D4
:1005E4001E40BE4249D0096B19409942CED1264BD8
:1005F400E361CBE70B6B3B40012B2BD00E6B3E40F2
:10060400022E32D0096B0F40032FB8D11E4FA761C1
:10061400B5E71D4BACE77F687B0402D45608E6605F
:1006240094E79108E16091E71A4A0260002078E7B4
:100634000F27C02150685668850C3D404B02023597
:100644001E4209D11448684320606AE72562A4E782
:10065400E5619BE7A56192E7D16A0B483940013116
:10066400FFF72EFD684320605BE780231E02A6612E
:1006740085E780231A0222628FE780263702E7612A
:1006840084E7C0460010024000127A0014000020E3
:10069400809FD500006CDC0200093D00F0B5DE4609
:1006A40057464E4645460122E0B5934602320023A2
:1006B40094460F6883B002E00133102B3CD05A46B5
:1006C4009A4014003C40A242F6D15D00A84665461B
:1006D4004646B540ED430C790195661E012E15D8AA
:1006E40086682E40866085684E79AA464546AE40A7
:1006F400350056462E4386608588954385808E79DD
:10070400828835009D402A4392B282800668019D0A
:10071400013335404646B440056002681443046022
:100724006446B440C568A543C560CA79C568B2408B
:100734002A43C260102BC2D103B0F0BCBB46B24600
:10074400A946A046F0BDC046F0B5C64600B5802512
:1007540082B090246B46060001270020E405AD001A
:10076400009598719F80804669462000FFF796FFA8
:100774000223A361C046C046C046C046C046C04628
:10078400C046C046A561C046C046C046C046C04635
:10079400C046C046C0462385C046C046C046C04683
:1007A400C046C046C046C0462585414600956D46B4
:1007B4002000AB80A9716946FFF770FF042340460F
:1007C4000C4A0D4D94681C4394600C4A686211688D
:1007D4000B4C012021401160D660802656601368BE
:1007E4003B4313602F880743BAB22A8002B080BC0F
:1007F400B846F0BD00240140002C0140080002402E
:10080400FEFF000010B5194C2278D3B2022A18D08A
:10081400022B0ED8002B1BD090231821D805828AD6
:10082400134B8A4382821868FFF78EFF03202070DF
:1008340010BD032BFCD10422002322700D4C237025
:10084400F6E70D480068FFF77FFF03212170EFE70B
:1008540090201821C205938A07480B4393820068AD
:10086400FFF772FF01222270E2E7C046560400201F
:1008740028000020590400202C0000200121002021
:10088400054B1A888A431A80044A5862136804493B
:100894000B4013607047C046002C01400800024022
:1008A400FEFF0000094B10B51868830703D5FFF756
:1008B400E5FFFFF7A7FF0822044B19680A4200D09E
:1008C4005A6001230148436010BDC0460000024045
:1008D4007047C0467047C0467047C0467047C04620
:1008E400FEE7C0460121F0B557464E464546DE4672
:1008F400154BE0B51A6815480A431A605C68144E33
:1009040004405C601D68134A35400F261D601F6853
:10091400114817401F605C68104A04405C60DD6A3F
:100924000F48B543DD6200251F6BD3B017401F632A
:100934005C6BA0278C435C639D6005700170802113
:1009440004958E02FC010FE0001002400CB8FF0871
:10095400FFFFF6FEFFFFFBFFFFFFC0FFACFEF0FF53
:1009640002100240002A07D11A68049D3240013562
:1009740004950498A042F5D1F04B01211E68B203FE
:1009840000D58FE3EE4FB846FA2512A8FFF7BAFD5B
:10099400139F08A800970397FFF7B4FD0998A900CF
:1009A400FFF78EFB802201385404A0420DD2C025EB
:1009B4000024E44E2A067060E348016A0B021F0A11
:1009C40017430762B460073434600125C023DB4E4B
:1009D4009022B069DF022843B0617169D4050F43E6
:1009E40077610227200006A9802606970795FFF75E
:1009F40055FE442302A9CA18B000462112900020D3
:100A040002AB15805A18107012A92000FFF746FE99
:100A1400F021606A02AA88436062636AD0390B439A
:100A2400636206950325200006A91575FFF736FEB7
:100A340018200126069002A92000C44C0E7506A9B0
:100A4400FFF72CFE200006A9069702AF3E75FFF7BC
:100A540025FE0223A68A12A81E43A682FFF752FD92
:100A64001398BB490090FFF72BFB45012A1A91000C
:100A74000F18FC000594059E002E05D0059B013B34
:100A8400059305980028F9D180228026AB4D970262
:100A94006969F3010F4303216F61AC69AD4A2343D4
:100AA400AB61286B8023884328632F6BAA4E3A439B
:100AB4002A639025E805046A04223440012604626E
:100AC400016A5F00A54D0F43076207950825A44CF2
:100AD40006A90692FFF7E2FD2068A24BB04320600E
:100AE4006168A14A194061602768A04E17402F43EE
:100AF4002760A0683040A06012A8FFF703FD2468B7
:100B0400189F230400D57F00E12138004902FFF734
:100B1400D7FAE123050059023800FFF757FBE12219
:100B240000201602B14240418D4F2C1839680B0445
:100B340004D58F4B2507680F1C4004438027A2B2BD
:100B4400874C8025A281A6682D013E43A66001261C
:100B54002168884F314321604146784CA06928437D
:100B6400A061E3682B43E360E2683A40E26008680E
:100B740081498346FFF7A4FA804B01901988471EE8
:100B84007F4A0020114019801021DF6218851886E1
:100B94009E821F8C8F431F84198C9A881F8B9046CA
:100BA400784A91461740C022D20192461743E02268
:100BB40091430A00302111434246009172490A4090
:100BC4009A801F830A27009A9F631A84198C6F4F97
:100BD400019A39401984198C9F888846BC464F462F
:100BE400998B0B3A394057460F43B94647466849F3
:100BF4003940C027BF010F43BA46674665490F40D5
:100C04009F804F469F831A6452461A841A8B594F09
:100C14003A402A431A839A8B17403D439D8380258B
:100C24001F882F431F8080273C3D5A5B3F023A4375
:100C34005A538023A5699A002A438025EB01802515
:100C4400A2616768544A3940616061680B4363601C
:100C5400276B6B00174088222763216BD5000B4359
:100C640023634E4C4E49E768394002270D43E56043
:100C7400A36A3343A3626061E068B843E060E1685B
:100C8400E160E2683243E260A5682E43A660012673
:100C9400B246504623681842FBD00421A768274D6A
:100CA4000F43A7606C690F2204436C6100243D4E1E
:100CB4003D4833683D4F0340336034607460B46032
:100CC400F46079683A481143796080218022129057
:100CD400C020B846374F8946159117918031D3000B
:100CE40013971891870112A930001494169419933C
:100CF4001A941B971C94FFF7E7FB534632682E4F58
:100D04001A433800326012A9FFF7DEFBC223022225
:100D140099008023306810433060284E284A705868
:100D24001040DA010243725080215246880030603C
:100D34006B691D4813436B61396843E0001002403E
:100D44002400002010E000E000ED00E00004004872
:100D54001027000001000010FFF0FFFF0203000055
:100D640000380140FFCFFFFFF3E9FFFFFFFCFFFF67
:100D7400F0FF0000FFF7FFFF00530700002C0140C5
:100D84008FFCFFFFFF8CFFFFFFF3FFFFFFEFFFFF71
:100D9400FFDFFFFFFFBFFFFFFFFEFFFF0024014057
:100DA40003D2FFFF08000240FEFF000000000240E3
:100DB40040240140540000201C00024000E100E0F7
:100DC400FF00FFFF424601403960F0213C607C6037
:100DD400BC60FC605368D5480B435360802212907A
:100DE4009305102013934A468023149006381590D7
:100DF400179258014246A8231694189419941A94E9
:100E04001B901C94D25840468A434146CA50CA5843
:100E140049460A43C25012A93800FFF755FB802304
:100E2400AF69DA023A4390274846C149FF05AA61EF
:100E340012901391380012A9FFF730FC3B6A1A0193
:100E4400A02310093862396ADA050A433A6258461F
:100E5400B849FFF735F9B84B013887B2B749188854
:100E6400B74A084018805046DA62B9461F85F3270E
:100E74001C869882198C944681431984198B1A8C88
:100E8400B943023F394319830C21E73F3800BA4381
:100E9400073F3A431A841A8B8A431A831F8B0A39F1
:100EA400BAB203271A837A421A82C5229F89920012
:100EB4000F43B9B29981B7583900A24F3940C027BE
:100EC4003F040F438021B750CF0380218B465946FE
:100ED40037601F880F430121BFB21F801F880F4353
:100EE4001F808023AF699B021F43AF61EF6872319B
:100EF4003B43EB60944FEB683B40EB60934B8F4F6D
:100F04001D883D401D804F466546DD621F851C8659
:100F140054469C821F8CA7431F841C8C9D881F8B66
:100F240084438F43443002A90818018802A80C4363
:100F340004218C4302390C43423141180888A4B27D
:100F4400044350207D49294002AD8A462918522085
:100F54000D8802A90918088805435046284398803B
:100F64001F8364275F631C845C461D880827254310
:100F7400A9B203256C42C0251980188BB8433843A5
:100F840018831C82998905340C43A0B29881B75800
:100F94006F4B2C021F403C43B4508022002391032A
:100FA40031606C4E994630786B4F8346B84645465F
:100FB4006A4A2C881178A4B20429F8D1684E307892
:100FC4000028F4D16930FF3084425BD2654F664D0E
:100FD4003B682A681F009246002000220025002159
:100FE400A44612AE0BE01C1BA3B233809D4201D277
:100FF4001D000A0001310236023080290BD054460C
:101004003B5A245AA342EED84B4601313380023076
:1010140002368029F3D16746132A37D803240320E4
:101024000439524E3070A24200D222008A4200D9C2
:101034000A0013199C46131B634531D212A98A4630
:10104400644600210020BC465A0052441F00168802
:10105400013377438919C01902329C42F6D8674696
:101064000023002904D064335843FFF729F883B2DE
:10107400312D00D801235D4604377800002D09D1B5
:101084003B490B520126364C267090E77721082401
:101094000820C6E70126374A314C1352267086E7EA
:1010A4000023E5E71025344A1468254315601068C9
:1010B400324D884301431160F0215E68304A8E430B
:1010C4005E605F68882617405F605C6880222C4001
:1010D40080255C6058687103014359601F6854049B
:1010E4003C431C60A8041E680642FCD00321022273
:1010F4000C255F688F433A435A60224B5868284056
:101104000828FBD15E682E40082E43D01E4C1F4990
:10111400A046216041461B4B1D4A5E680B6837069A
:101124003D0F545DE3400B602EE4C0462838014077
:101134000200000150C3000000480140FFFCFFFF13
:10114400FFFF0000FFFF00FFFFFFFDFF0044014021
:10115400FF00FFFF0C0A00204C0000205604002072
:1011640059040020280000202C000020100000203A
:101174005C0400203407002000200240FF7FC2FFEF
:10118400FFF8FFFF001002402400002000127A0044
:10119400000000200F22C0215F685D68BC0C144071
:1011A40048020234054205D1084D094F6C43B84644
:1011B4003C60AFE7D96A064B1140984605480131B7
:1011C400FEF77EFF464644433460A3E700093D0032
:1011D4002400002000127A0001213B4B3B481A688E
:1011E40082B00A431A605A6802405A601A68384842
:1011F40002401A601A68374802401A605A68364832
:1012040002400F205A60DA6A8243DA621A6B33486A
:1012140002401A635A6B8A4300215A638022996000
:1012240000910191186851020143A02280201960A5
:101234008002D10102E0009A8A4208D01A68024072
:101244000192009A01320092019A002AF3D01E4BB7
:10125400802118688A0203001340104206D001203E
:1012640001900199012905D002B0704701930199B9
:101274000129F9D111221A4B13481A6041684160BF
:1012840043681849436042680A4042608822510317
:101294008022436819434160036851041943802341
:1012A4000160990402680A42FCD0032143688B431D
:1012B4004360426801390A430C2142600248436892
:1012C4000B40082BFBD1CFE7001002400CB8FF08FD
:1012D400FFFFF6FEFFFFFBFFFFFFC0FFACFEFFFFBB
:1012E40000200240FF7FC0FFF8B5CE4647460221EA
:1012F40080B5864B188A9A8994B2014200D1BCE029
:10130400214200D1B9E00325814F6E421E82388804
:10131400804C82B222805B6B99B2398025883888F0
:10132400AEB2854200D8ACE03F887B4C013FBA1B8B
:10133400DF2793B2238020887B00984200D3ABE060
:101344000221764D0126AA8A0A43AA822380744B7D
:1013540098461E7027881621B8B2FEF7B1FE85B2F2
:101364001620704E704F3580704D2A780132D1B2FC
:1013740029702B786E4943433B8032886D4B90B281
:101384000A788C465100C852032101320A40614652
:101394000A705A881988800089189A88DB88891805
:1013A400CA18911080B2002903D089B2FEF788FED2
:1013B40080B2042800D879E02088162142082280CF
:1013C4002488A0B2FEF77CFE83B25B483380018898
:1013D4005A4C8AB24D4B2280596B8AB202802388C0
:1013E400018800889CB2001B8B4202D9544A914662
:1013F40048443221FEF7EEFE524B84B21C80297819
:1014040099460F2900D17AE0012302214E4C43482A
:101414002370828A0A438282FFF730FA00204B4B02
:101424004B49187001230A7853400B70012A48D1A4
:10143400B62000218200474800F0E8F8217800290E
:1014440059D000212170012429703980424F3688F7
:101454003888013EA04338800120B5B279626B0020
:1014640069049AB24E0CFA627E63BD8A0543ACB23B
:10147400BC823B8803439AB23A80C0BCB946B046AA
:10148400F8BD3988DF27244C8D1BAEB22680208816
:101494007B00984200D253E7022100201F4A204ECD
:1014A400958AB0468D439582307053E734882A4A32
:1014B400013CA6B275007304AFB2590CD7625163F4
:1014C400DBE7B62000218200244800F09FF8217851
:1014D4000029B6D142461F4813781A002049531EEA
:1014E4009A41016049461F4B134383800A88C28096
:1014F400FEF7D0FFA5E7424618481378EDE702242B
:101504000648828AA24382820F4C85E70048014044
:101514004E00002050000020540400200004004825
:1015240057040020120A00204C0000200D0A00205D
:1015340058040020140A00201E0A0020200A00205B
:10154400FFFF00000E0A0020100A002056040020AD
:101554000C0A00205C0400200044014034070020F1
:10156400AABBCCDD0080FFFF022110B51C4B188AFA
:101574009A8992B201420ED011420CD00320194A2A
:1015840040421082B3201A8A8A431A82164B4200C0
:101594001988914200D910BD0021144801701A889D
:1015A4000131013290B218801A88013290B2188049
:1015B4000F4B1A784A401A701978CB0708D50D4892
:1015C4000D4B0E490E4A03600A60FFF71BF9E2E770
:1015D40008480C4B09490C4A03600A60F5E7C04609
:1015E40000440140004801404C0000205604002003
:1015F4001C0A002028000020540000202C00002099
:1016040054020020540100205403002003008218D7
:10161400934200D1704719700133F9E7F8B5C04619
:10162400F8BC08BC9E467047F8B5C046F8BC08BC78
:041634009E46704717
:04163800250400087D
:04163C00F9030008A6
:101640000000000000000000010203040607080972
:10165000080000000000000001020304010203046E
:1016600006070809006CDC02540000205402002028
:0400000508000449A2
:00000001FF
