:020000040800F2
:10000000100400204D120008F1110008F31100083F
:1000100000000000000000000000000000000000E0
:10002000000000000000000000000000F5110008C2
:100030000000000000000000F7110008F91100089E
:10004000EF0F000800000000F30F0008671300081E
:1000500073130008A5130008A7130008A9130008CC
:1000600000000000FB110008AB130008AD130008EE
:10007000AF130008B1130008B3130008000000001C
:10008000B51300080000000000000000B7130008CE
:10009000B9130008BB130008BD130008BF13000804
:1000A000C1130008C3130008C5130008C7130008D4
:1000B000C913000880B50121012000F095FB00F074
:1000C0000DF800F03CF800F095F900F08AF800F027
:1000D000C9F800F002F900F0C8F901BD00B58BB015
:1000E00000F026FA012000F047FA00F04AFA012851
:1000F0001ED100F0D4FB012000F0CAFB002000F06C
:100100007DFA002000F07FFA80214903080900F001
:1001100054FA012000F05CFA192000F08BFB002853
:10012000FAD0022000F060FA00F063FA0828FBD150
:1001300001A800F0A3FA029800900BB000BDF0B542
:1001400083B00121C020C00200F044FB684600F0EB
:10015000EAFB0227009700266C466671012525718F
:1001600069469020C00500F0A9FB012000F024F8AA
:1001700002220921C80600F0E5FB0095032020714A
:1001800069469020C00500F099FB80200090267100
:1001900069469020C00500F091FB18200090257161
:1001A00069469020C00500F089FB009725716946DB
:1001B000C14800F083FBF7BD00B583B08021890002
:1001C000009100216A4651719171002801D10220ED
:1001D00000E00120107169469020C00500F06EFB20
:1001E00007BDF0B589B00121C80200F0FDFABD4C91
:1001F000200000F0B7FB03A800F0CCFC684600F03C
:1002000033FC002069460880522201920881488010
:10021000200000F0FDFB602703AD2F8001266E80DB
:100220000A2005900220A88103A9200000F052FCBA
:100230002F806E804620059003A9200000F084FCEA
:100240000821200000F0B0FC0821200000F0B6FCDE
:100250000121200000F013FC0121200000F01CFC13
:1002600009B0F0BD10B586B00121480200F0BCFA1B
:100270008020400400F0CEF9684600F0CFFC00205A
:1002800000906A4610714021039109010291049087
:100290000590954C6946200000F0AEFC002201213B
:1002A000200000F0CCFC200000F0CEFC002120005B
:1002B00000F0EEFC0121200000F0DFFC0121200015
:1002C00000F0B4FC0121200000F0EAFC0028F9D085
:1002D000200000F0CDFC06B010BD10B58CB001219F
:1002E000012000F077FA814C200000F0EBFC804800
:1002F000009080480190002002908021039104909A
:10030000059180310691890007910890C0218901EB
:1003100009910A906946200000F023FD0121200088
:1003200000F03AFD6946744800F01BFD01220221ED
:10033000200000F04AFD71480168714A0A4080219E
:10034000C90111430160600D6E4908600CB010BD19
:1003500038B50500654C0021200000F01DFDE5606A
:100360008020606031BD70B506000120FFF724FFDA
:100370009024E4050221200000F0E0FA8025AD0081
:100380002900200000F0DAFA0221200000F0D8FA5B
:100390002900200000F0D4FA0020FFF70DFF52489A
:1003A00000F066FC4F4C0021200000F066FB30009E
:1003B000FFF7CEFF01214D4800F0EEFC208801211F
:1003C0000143218070BD5048018818220A430280F1
:1003D00070474D4801884D4A0A40028070474C4999
:1003E0000028088802D00222024301E0494A024064
:1003F0000A80704730B589B00121480400F0EAF95D
:100400000121880300F0F0F9434800F015F9902429
:10041000E40501220221200000F094FA684600F071
:1004200082FA04200090002568464571022101717E
:100430006946200000F042FAE12040020290039554
:1004400004950595079508200690344C02A92000D4
:1004500000F0F6FC01228021200000F063FD012164
:10046000200000F03BFD09B030BD10B58CB001217B
:10047000012000F0AFF9204C200000F023FC2848B8
:100480000090802080050190102002900A200390A7
:100490000020049080210591069007900890490162
:1004A00009910A901F49204800F080FC694620000D
:1004B00000F057FC0CB010BD0004004810B58CB023
:1004C000040001A800F0DAF80298184900F038FD9D
:1004D000604301E00098401E009000980028F9D188
:1004E0000CB010BD002C0140002401400800024067
:1004F00040240140100500201C00024008E400E0F8
:10050000FF00FFFF00E100E014000048E7FF0000EB
:1005100014040048FDFF00000100001000380140F5
:100520002838014080000010000002401027000021
:100530004B48016801220A4302604168494A0A4067
:1005400042600168484A0A4002600168474A0A401E
:1005500002604168464A0A404260C16A0F229143E4
:10056000C162016B434A0A400263416B012291431D
:1005700041630021816070473F4900220A70087082
:10058000704710B582B000240094112000F052F999
:100590000099491C00910099A022D201914201D0FA
:1005A0000028F2D0112000F045F9002800D00124E5
:1005B000200016BD10430860704710B5824A1368CA
:1005C000824C1C401460136801431943116010BD34
:1005D00023490028086803D080225204024301E026
:1005E0007B4A02400A60704777490A6803239A43AE
:1005F000E0E7754801680C200840704772490A68B6
:10060000F0239A43D6E770490A68814B1340184398
:10061000086070476C490A687E4B13400B600A689B
:1006200083B213430B60CA6A804B1340CB62CA6A21
:10063000000C1043C8627047020F7D49012A04D1A3
:100640000A6803239A430A6007E0022A0A6801D174
:10065000834B00E0834B13400B600A68AAE700005D
:10066000001002400CB8FF08FFFFF6FEFFFFFBFF83
:10067000FFFFC0FFACFEF0FF02100240F0B5040027
:100680000020514D2968784E0C220A40082A02D0D9
:100690000C2A17D018E0286829688002070FBF1CB1
:1006A000C0204002084003D138007108484307E0E9
:1006B000A96A30000907090F491C00F041FC784382
:1006C000010002E0694900E0310021602B686849BF
:1006D00022681B061B0FCB5CDA4062602B685B054F
:1006E0005B0FC95CCA40A260E96AC90501D46149CF
:1006F00005E02968490401D4510800E09108E1604F
:1007000080210902EA6A520601D45B4A00E00A002D
:100710002261EA6AD20601D4320000E022686261F6
:100720000322EB6A134001D1A26804E0EB6A134094
:10073000012B02D12268A2610AE0EB6A1340022B6E
:1007400001D1A16104E0EB6A1A40032A00D1A6613D
:10075000C0229202EB6A134001D1A26805E0EB6A65
:1007600013404F00BB4202D12268E2610BE0EB6A0A
:1007700013408F00BB4201D1E16104E0EB6A1340FA
:10078000934200D1E661C0221203EB6A134001D10B
:10079000A1680BE0EB6A1340CF00BB4201D1216896
:1007A00004E0EB6A13400F01BB4201D1216204E077
:1007B000E96A1140914200D12662E96A090600D433
:1007C0002A486062F0BD000004100240FF7FC2FFB3
:1007D000FFFFFFFE294A0029116802D0084310607C
:1007E0007047814311607047254A0029116802D083
:1007F000084310607047814311607047214A002907
:10080000116802D00843106070478143116070473F
:10081000FFF8FFFFFFBFFFFF1B4A0029116802D04E
:10082000084310607047814311607047FFFEFFFF6F
:10083000301002404109154A002901D1116808E031
:10084000012901D1116A04E0022901D1516A00E0B5
:10085000516BC006C00EC140C807C00F70470000F2
:10086000FFFFFCFFFFFFF3FF00127A00006CDC02C9
:1008700000000020809FD50012800000141002406C
:10088000181002400C1002401010024000100240EC
:1008900009490A6801239A431043086070470649D2
:1008A0000028086803D0102202430A607047102213
:1008B000904308607047000000200240F0B500231C
:1008C00001229A400C681440944228D15C0003260F
:1008D000A640F5430E79012E01D0022E0FD1866875
:1008E0002E40866086684F79A740374387608688A8
:1008F0009643868082888E799E4016438680026861
:100900002A40026002680E79A64016430660C2685B
:100910001540C560C268CD79A5401543C5605B1C14
:10092000102BCDD3F0BD04490160002101710122DB
:1009300042718171C1717047FFFF00008161704792
:100940000185704710B5CB089B00C0184907C90E38
:10095000036A0F248C40A3430362036A8A401A434C
:10096000026210BD10B54B49884201D1CC0C46E063
:100970008021C905884206D101210120FFF74CFFE3
:100980000021012027E04D49884206D101210220A3
:10099000FFF742FF002102201DE04949884206D1AD
:1009A00001211020FFF738FF0021102013E04549F6
:1009B000884206D101212020FFF72EFF00212020B0
:1009C00009E04149884209D18C0D01212000FFF73F
:1009D00023FF00212000FFF71FFF10BD3B49884285
:1009E00002D1802464020AE03949884202D180247D
:1009F000A40204E06649884209D18024E40201216E
:100A00002000FFF7FBFE00212000FFF7F7FE10BDDE
:100A100010B503881F4A904206D08024E405A04206
:100A200002D0264CA04203D1454C1C404B882343A6
:100A3000234CA04203D0434C1C400B89234303802A
:100A40004B68C3620B880385904208D01F4A9042CE
:100A500005D01F4A904202D04D4A904201D1897A76
:100A600001860121818210BD0021C943416000211E
:100A70000180018141808172704741627047002985
:100A8000018802D080220A4301E0504A0A400280D5
:100A900070470000002C0140002907D04421415A32
:100AA000802212020A434430028070474421415A96
:100AB0004904490C443001807047000000040040A4
:100AC00000100040001400400020004000400140A1
:100AD0000044014070B5028C3D4B13400384048CEC
:100AE0008288038B3B4D1D400B881B022B433A4DE4
:100AF00025408C894E88264334012C432E4DA84234
:100B000002D0364EB04215D1354E16400A8A9200B8
:100B10003243A8420ED12D4D2540CC8924012C43CF
:100B2000304D25408C8824012C432F4D15404A8A96
:100B300092002A438280038389688163048470BDA4
:100B40008FFF0000FFFC000070B5028C274B1340A4
:100B50000384038C8288848B1E4D25400C882402DC
:100B60002C43234D1D408B894E881E4333032B435A
:100B7000114DA84204D11F4D15400A8A92012A4303
:100B80008280848389680164038470BD0000000052
:100B90000048014000210180418081808160818185
:100BA000C181018241827047028B0F4B13400902C1
:100BB0001943018370470000002C0140828B0A4BCF
:100BC0001340090219438183704700007FFF000032
:100BD000EFFF0000FF8C0000DFFF0000004001403D
:100BE000FFFB0000BFFF0000FFF70000FFEF000069
:100BF000FFDF0000FFBF0000C268304B13400A68EF
:100C00001A430B795B0313438A681A43CB68134377
:100C10000A691A4349691143C160704700210160A4
:100C200001718160C1600161416170470029816883
:100C300001D0012200E002220A4382607047836AE9
:100C4000194381624261704710B501000020802283
:100C500012068B6813438B60F0231B028C685B1EAB
:100C600001D01440FAD18B681A4000D1086C10BD35
:100C7000816804220A43826070470029C16803D05A
:100C800001220A43C260704701229143C16070474C
:100C9000C26802239A43C260C2681143C1607047B0
:100CA00002000020CB0103D59368054A1A4000E0FA
:100CB0001268114000D001207047000003D2FFFFEE
:100CC000FFFFFFFEF0B50168504A0A4002600021B4
:100CD000016041608160C1600F214D4A4D4B9842D7
:100CE0001FD0F0234C4CA04222D00C024B4DA84206
:100CF00025D00D034A4EB04228D00E04494FB842C9
:100D00002BD01437B84202D1106809050AE0143715
:100D1000B84202D11068090604E0434A434FB84282
:100D200003D1106801431160F0BD4149884203D1ED
:100D3000106803431360F0BD1431884203D110687A
:100D400004431460F0BD1431884203D11068054398
:100D50001560F0BD1431884202D110680643166058
:100D6000F0BD0268334B13408A681A430B6A134381
:100D70000A691A434B6913438A691A43CB691343BF
:100D80004A6A1A438B6A13430360CA6842600A685E
:100D900082604968C16070470029016802D0012261
:100DA0000A4301E0194A0A400260704710B5A830B2
:100DB00002680F230C0FA400A3409A43026002684C
:100DC000090109091143016010BD002A026802D01F
:100DD0001143016070478A43026070470DE000BF15
:100DE00001000020CA0001D5134A00E0134A12682E
:100DF000114000D00120704700BFC10001D50A4951
:100E000000E003490860704700000000FEFF00009A
:100E100004000240080002401C0002403000024072
:100E2000440002405800024004040240080402400A
:100E30001C0402400F80FFFF00040240000002403B
:100E4000F0B58BB004000D002068012188432060BC
:100E500060682D490140A8680843606020682B49FC
:100E6000014068680843E968014328690843206035
:100E7000A0682749014068690843A0606846FFF7F9
:100E8000FDFB1C48844201D1069E0AE01A488442B8
:100E900001D1079E05E01B48844201D1089E00E075
:100EA000029E2D682068000400D5760030002900DD
:100EB00000F046F807003000290000F041F868080B
:100EC000814200D37F1C2068000404D514483840B8
:100ED00039074F0F0743A7810BB0F0BD0029016808
:100EE00003D001220A43026070470122914301604E
:100EF000704700000038014000440040C905C90D9A
:100F00000185704700480040FFCFFFFFF3E9FFFF76
:100F1000FFFCFFFF134083608268114381607047CC
:100F2000F0FF0000002A826800D0F6E78A43826062
:100F3000704702000020D269114000D001207047A4
:100F40000022030A8B420BD203098B4219D24308B9
:100F50008B422ED2411A00D20146524110467047B0
:100F6000FF2209023FD012068B4205D3121209025A
:100F70008B4201D31212090203098B4219D300E0FC
:100F8000090AC3098B4201D3CB01C01A524183091C
:100F90008B4201D38B01C01A524143098B4201D3CA
:100FA0004B01C01A524103098B4201D30B01C01AF5
:100FB0005241C3088B4201D3CB00C01A524183086F
:100FC0008B4201D38B00C01A524143088B4201D39C
:100FD0004B00C01A5241884200D3401A5241CFD22E
:100FE00001461046704708B500F002F808BDFEE75C
:100FF0007047FEE782B03348016801220A4302606D
:101000004168314A0A4042600168304A0A40026041
:1010100001682F4A0A40026041682E4A0A40426035
:10102000C16A0F229143C162016B2B4A0A400263DD
:10103000416B012291434163002181600191009144
:10104000016812040A430260016880229202114082
:1010500000910199491C01910099002904D101993D
:10106000A022D2019142EFD101688903CA0F0092F8
:101070000099012924D11121184A11604168416069
:10108000416841604168164A0A40426041688822CE
:1010900052030A4342600168802252040A430260FC
:1010A00001688901FCD54168032291434160416890
:1010B00002220A43426041680C220A40082AFAD1FF
:1010C00002B07047001002400CB8FF08FFFFF6FEA8
:1010D000FFFFFBFFFFFFC0FFACFEFFFF0020024051
:1010E000FF7FC0FFF8B5FEF7E5FFFFF76CF9314F62
:1010F0000024314D314E0120FFF771F9FFF769F9F6
:101100003000FFF730F928780028FCD0FFF75BF9B2
:101110002C703000FFF727F928780028FCD0FFF763
:1011200058F92C703800FFF71EF928780028FCD0F9
:101130002C700020FFF753F9FFF745F900F00EF887
:10114000D9E710B51E4C01002000FFF7D7FE802123
:101150002000FFF7EEFE0028F9D010BD70B5412049
:10116000FFF7EFFF6220FFF7ECFF4320FFF7E9FFF7
:101170006420FFF7E6FF4520FFF7E3FF6620FFF757
:10118000E0FF002100220B480C4E540003191D887B
:10119000345BAC4202D22C1B1C8000E01980521C34
:1011A000802AF2DB802100F00DF82820FFF786F975
:1011B00070BD000010040020100600201005002063
:1011C0000038014070B504000D00084E00213000C9
:1011D000FFF7E2FDF4606800706080208001FFF797
:1011E000FDFD01213000FFF7D7FD70BD1C0002405E
:1011F0007047FEE770477047704780B50220FFF7E1
:10120000EEFD00280ED00D4801880D4A0A400280EC
:101210000021FFF732FC00210A48FFF7BDFD012045
:10122000094908700820FFF7DAFD002802D00820DD
:10123000FFF7E2FD0120FFF7DFFD01BD002C0140BB
:10124000FEFF00000800024010060020094880F35D
:10125000088804200168090E1F22914205D1064822
:1012600001210160054800210160054880470548CB
:101270000047000010040020181002400000014048
:10128000F50F00089913000870B40121002313E042
:101290000468001D0C4202D04D466D1E6419236087
:1012A000241D121F042AFAD22500960701D5238097
:1012B000AD1C0A4000D02B700268001D002AE7D147
:1012C00070BC704730B401210268001D002A0FD0A5
:1012D0000368C318446808300C4202D04D466D1EA6
:1012E00064191D6825601B1D241D121FECD0F8E732
:1012F00030BC704710B5074979441831064C7C441E
:10130000163404E0081D0A68891888470100A142C4
:10131000F8D110BD08000000280000006DFFFFFF9D
:1013200004020000100400200000000099FFFFFFED
:101330001000000054000000000000200000000029
:1013400000F00BF8002801D0FFF7D4FF0020C046C2
:10135000C046FFF7C7FE00F002F80120704780B5D5
:1013600000F002F801BDFEE70746384600F002F83B
:10137000FBE7FEE780B5C046C046024A11001820D0
:10138000ABBEFBE7260002000000000001020304E0
:101390000102030406070809C046C046C046C0460D
:1013A000FFF7CEFFFEE7FEE7FEE7FEE7FEE7FEE71C
:1013B000FEE7FEE7FEE7FEE7FEE7FEE7FEE7FEE705
:0A13C000FEE7FEE7FEE7FEE7FEE7AA
:040000050800139943
:00000001FF
