:020000040800F2
:10000000180400203D080008890700088B07000835
:1000100000000000000000000000000000000000E0
:100020000000000000000000000000008D07000834
:1000300000000000000000008F0700089107000882
:100040003304000800000000370400080B09000812
:10005000170900084D0900084F0900085109000858
:100060000000000093070008530900085509000824
:1000700057090008590900085B0900080000000042
:100080005D09000800000000000000005F09000892
:10009000610900086309000865090008670900088C
:1000A000690900086B0900086D0900086F0900085C
:1000B000710900083848016801220A43026041685A
:1000C000364A0A4042600168354A0A4002600168C7
:1000D000344A0A4002604168334A0A404260C16AB9
:1000E0000F229143C162016B304A0A400263416BA7
:1000F0000122914341630021816070472C49002215
:100100000A700870704710B582B000240094112066
:1001100000F012F90099491C00910099A022D20127
:10012000914201D00028F2D0112000F005F90028FA
:1001300000D00124200016BD10430860704710B5A0
:100140006F4A13686F4C1C401460136801431943D5
:10015000116010BD10490028086803D080225204A5
:10016000024301E0684A02400A60704764490A6835
:1001700003239A43E0E7624801680C200840704777
:100180005F490A68F0239A43D6E75D490A68694BDC
:100190001340184308607047001002400CB8FF0875
:1001A000FFFFF6FEFFFFFBFFFFFFC0FFACFEF0FF0F
:1001B00002100240F0B504000020514D2968694E3C
:1001C0000C220A40082A02D00C2A17D018E028680E
:1001D00029688002070FBF1CC0204002084003D1DD
:1001E00038007108484307E0A96A30000907090F81
:1001F000491C00F0C7F87843010002E05A4900E0CA
:10020000310021602B68594922681B061B0FCB5C0B
:10021000DA4062602B685B055B0FC95CCA40A26074
:10022000E96AC90501D4524905E02968490401D4A5
:10023000510800E09108E16080210902EA6A520653
:1002400001D44C4A00E00A002261EA6AD20601D4D5
:10025000320000E0226862610322EB6A134001D1A0
:10026000A26804E0EB6A1340012B02D12268A2616C
:100270000AE0EB6A1340022B01D1A16104E0EB6AB2
:100280001A40032A00D1A661C0229202EB6A1340F1
:1002900001D1A26805E0EB6A13404F00BB4202D1D6
:1002A0002268E2610BE0EB6A13408F00BB4201D190
:1002B000E16104E0EB6A1340934200D1E661C022A1
:1002C0001203EB6A134001D1A1680BE0EB6A134003
:1002D000CF00BB4201D1216804E0EB6A13400F015B
:1002E000BB4201D1216204E0E96A1140914200D190
:1002F0002662E96A090600D41B486062F0BD00006E
:1003000004100240FF7FC2FFFFFFFFFE1A4A0029D0
:10031000116802D008431060704781431160704734
:10032000164A0029116802D00843106070478143C3
:1003300011607047FFF8FFFF4109114A002901D100
:10034000116808E0012901D1116A04E0022901D1F4
:10035000516A00E0516BC006C00EC140C807C00F13
:100360007047000000127A00006CDC0200000020E0
:10037000809FD50012800000141002401810024027
:10038000001002400022030A8B420BD203098B4269
:1003900019D243088B422ED2411A00D20146524153
:1003A00010467047FF2209023FD012068B4205D348
:1003B000121209028B4201D31212090203098B4265
:1003C00019D300E0090AC3098B4201D3CB01C01A3B
:1003D000524183098B4201D38B01C01A5241430918
:1003E0008B4201D34B01C01A524103098B4201D306
:1003F0000B01C01A5241C3088B4201D3CB00C01A73
:10040000524183088B4201D38B00C01A52414308EA
:100410008B4201D34B00C01A5241884200D3401A8C
:100420005241CFD201461046704708B500F002F89D
:1004300008BDFEE77047FEE780B501210120FFF708
:100440006FFF00F003F800F032F801BD00B58BB08B
:10045000FFF730FE0120FFF751FEFFF754FE0128A1
:100460001ED100F094F8012000F08AF80020FFF778
:1004700087FE0020FFF789FE802149030809FFF766
:100480005EFE0120FFF766FE1920FFF755FF0028EA
:10049000FAD00220FFF76AFEFFF76DFE0828FBD1B5
:1004A00001A8FFF787FE029800900BB000BDF0B5E1
:1004B00083B00121C020C002FFF728FF684600F08A
:1004C000AAF80227009700266C466671012525715F
:1004D00069469020C00500F069F80095032020715E
:1004E00069469020C00500F061F8802000902671D8
:1004F00069469020C00500F059F818200090257139
:1005000069469020C00500F051F8009725716946B2
:10051000174800F04BF8684600F07DF80420009082
:100520006671257169469020C00500F03FF8F7BD5F
:1005300010490028088802D00222024301E00E4A36
:1005400002400A80704710B58CB0040001A8FFF784
:1005500031FE02980949FFF715FF604301E000985A
:10056000401E009000980028F9D10CB010BD00008A
:100570000004004814040048FDFF0000102700009C
:1005800009490A6801239A431043086070470649E5
:100590000028086803D0102202430A607047102226
:1005A000904308607047000000200240F0B500232F
:1005B00001229A400C681440944228D15C00032622
:1005C000A640F5430E79012E01D0022E0FD1866888
:1005D0002E40866086684F79A740374387608688BB
:1005E0009643868082888E799E4016438680026874
:1005F0002A40026002680E79A64016430660C2686F
:100600001540C560C268CD79A5401543C5605B1C27
:10061000102BCDD3F0BD04490160002101710122EE
:1006200042718171C1717047FFFF0000020000201C
:10063000128AFFE70A4200D00120704782B0334897
:10064000016801220A4302604168314A0A4042605F
:100650000168304A0A40026001682F4A0A4002607D
:1006600041682E4A0A404260C16A0F229143C1622A
:10067000016B2B4A0A400263416B012291434163A3
:100680000021816001910091016812040A43026017
:10069000016880229202114000910199491C019148
:1006A0000099002904D10199A022D2019142EFD1F1
:1006B00001688903CA0F00920099012924D11121F0
:1006C000184A116041684160416841604168164ABA
:1006D0000A4042604168882252030A43426001682E
:1006E000802252040A43026001688901FCD54168F6
:1006F000032291434160416802220A4342604168FB
:100700000C220A40082AFAD102B0704700100240B9
:100710000CB8FF08FFFFF6FEFFFFFBFFFFFFC0FF67
:10072000ACFEFFFF00200240FF7FC0FF38B5FFF79F
:1007300083FE0A2496256D000120FFF7F9FE2800AC
:10074000FFF701FF0020FFF7F3FE2800FFF7FBFE95
:10075000641EF1D19024E40580212000FFF766FF9C
:10076000002807D10120FFF7E3FEA08A04210143FE
:10077000A182EFE70020FFF7DBFEA08A01490140DC
:10078000F6E700BFFBFF00007047FEE770477047C9
:10079000704780B5022000F02FF800280ED00D48D9
:1007A00001880D4A0A400280002100F045F800212E
:1007B0000A4800F017F8012009490870082000F0E5
:1007C0001BF8002802D0082000F023F8012000F0D8
:1007D00020F801BD002C0140FEFF0000080002408F
:1007E000100000200029016802D001220A4301E024
:1007F0000C4A0A400260704700BF01000020CA0096
:1008000001D50B4A00E00B4A1268114000D00120CC
:10081000704700BFC10001D5044900E002490860EB
:1008200070470000FEFF0000040002400404024084
:10083000000402400000024041627047094880F312
:10084000088804200168090E1F22914205D106483C
:1008500001210160054800210160054880470548E5
:10086000004700001804002018100240000001405A
:100870003D0600084109000830B401210268001D4E
:10088000002A0FD00368C318446808300C4202D015
:100890004D466D1E64191D6825601B1D241D121F09
:1008A000ECD0F8E730BC704710B5074979441831EF
:1008B000064C7C44163404E0081D0A6889188847F1
:1008C0000100A142F8D110BD08000000180000008E
:1008D000A9FFFFFF140000005400000000000020EA
:1008E0000000000000F00BF8002801D0FFF7DCFF4B
:1008F0000020C046C046FFF719FF00F002F80120B3
:10090000704780B500F002F801BDFEE707463846A3
:1009100000F002F8FBE7FEE780B5C046C046024A99
:1009200011001820ABBEFBE726000200000000000B
:100930000102030401020304060708090000000085
:10094000C046C046C046C046FFF7CCFFFEE7FEE704
:10095000FEE7FEE7FEE7FEE7FEE7FEE7FEE7FEE76F
:10096000FEE7FEE7FEE7FEE7FEE7FEE7FEE7FEE75F
:02097000FEE7A0
:0400000508000941A5
:00000001FF
